:020000040000fa
:080000000002040000000000f2
:020000040000fa
:100400006f922000807f2200000188000000000021
:10041000050007000c000700a00202000000000019
:100420000040da000000fe004440a9000000200067
:100430000000e0000300320000002000a00188005e
:100440004440a80000000600809f2000010020001a
:100450001600370062004000e080480091018800eb
:100460009001ba0062004000e080480091018800dd
:100470009002ba0062004000e08048000002eb00f9
:100480006028e10005003a008301e900070033001d
:10049000038009000059eb00040037006128e100e7
:1004a000010032000082eb00050007009101880086
:1004b0001001ba000200e000e6ff3a00000005006b
:1004c000910188008002780062004000e0804800ce
:1004d0003559ba008301e900080032002559ba00f5
:1004e0008301e900050032000400e000f4ff32005f
:1004f00015d9ba008301e900f1ff3a0000000600b7
:100500006022b800060220000000d0008180d200e6
:100510000482d2008582d2000000a00002025200b4
:1005200083825a00030031000202420083824a00a3
:100530000000a1000603e900f3ff3a0000000600f6
:100540000e00fa00881f780040c7bf000044b200c8
:100550000004e00005003a0040c7bf0001c8b30036
:10056000014060000004e000030032000000eb00e6
:10057000003a88000c00370064004700680147001b
:10058000800178000000210001002000f402070033
:10059000100798001e0090000000e00002003a00e2
:1005a0004e009000c402070081e0a800005822001d
:1005b000050207008000eb000000eb00bf01070010
:1005c0000000eb001007980000003700050207004c
:1005d0000000e000fdff32001e009000f90f500007
:1005e00009003e001e0490001b02070080407800b6
:1005f000008c200000004400014878001e0090009c
:100600000000e800100798001e009000e10f500065
:100610007f003a00c0c8bf000080fb006007980060
:100620006e009000f30f500038003200ee00900092
:10063000f38f500011003c006e009000f00f50004e
:1006400029003200ee009000f08f500004003c00c2
:100650006e009000e40f5000160032006700370073
:10066000ee009000f18f5000220032006e009000ea
:10067000f20f50002200320060003700ee009000c0
:10068000f58f5000270032006e009000f50f5000eb
:1006900021003500ee009000f68f5000410032003e
:1006a000000f2000ee009000808f50004e003200be
:1006b0005200370080c0b3000002070020c0b30022
:1006c000fe01070030c6b300fc01070020c4b300e0
:1006d000fa010700c0c8bf00f80107000000eb00e6
:1006e00010079800b9ff3700a0012000d04688000d
:1006f000b6ff370040002000d0468800b3ff370027
:1007000040002000d0468800b0ff370040002000a5
:10071000d0468800adff370020002000d04688007a
:10072000aaff370064004700680147008001780095
:100730000000210001002000890207001007980036
:100740001e009000dd01070068004700104078009f
:10075000da010700680047000000e8001040780058
:10076000d60107006400470010407800d30107005d
:10077000640047000000e80010407800cf01070047
:10078000640047000080e80010407800cb010700bb
:10079000c0c8bf00c90107000000eb0010079800a7
:1007a0008aff370064004700680147008001780035
:1007b00000002100010020006902070010079800d6
:1007c0001e0090000000e00002003a004e00900081
:1007d00039020700c0c8bf00b80107000000eb00e5
:1007e0001007980079ff3700c0c8bf00b3010700a9
:1007f0000000eb001007980074ff370000c0eb000a
:10080000ae0107000000eb00100798006fff3700f3
:10081000d14680001e009000810f50006bff390010
:10082000c0c8bf000080fb00500798005e00900029
:10083000f20f500060003200de009000f28f500096
:1008400007003c005e009000f00f50000b003200eb
:10085000de009000f18f50002e003200c4003700ff
:100860005e009000f30f50007b003200de0090002d
:10087000f48f500099003200bd003700c1c8bf009e
:100880000080fb00000f7800700020009e0f100019
:100890001b003e001e0078007800b9004007980059
:1008a00020002000100798000d0037004e01900036
:1008b0009e009000008c2000008040009040780056
:1008c0000080200000004100014878000200e8009c
:1008d000400798001e0090000000e80010079800f4
:1008e0001e009000f90f5000f0ff36001e00780047
:1008f00072010700c0c8bf00700107000200370086
:10090000e0cfb3006d0107000000eb001007980076
:100910002eff3700e4004700c1c8bf0080487800c0
:10092000640047008000e800c2c8bf00804878002b
:10093000640047008080e800c3c8bf00804878009a
:1009400064004700e30040000040eb00804878006e
:100950002e019000be019000f0ff20000100200059
:10096000800f5100818f59000e0036002e0090003c
:10097000be0090000000a200610060000004a20020
:100980000004e00007003a002e009000be00900036
:1009900002802000b2010700c0c8bf004701070065
:1009a00002003700e0cfb300440107000000eb0075
:1009b0001007980005ff3700e4004700c1c8bf00da
:1009c00080487800640047008000e800c2c8bf008b
:1009d00080487800640047008080e800c3c8bf00fa
:1009e0008048780064004700e30040000040eb00ce
:1009f000804878002e019000be019000f0ff20009a
:100a000001002000800f5100818f59000d00360039
:100a10002e009000be0090000000a2006100600067
:100a20000004a2000004e00006003a002e0090003e
:100a3000be0090007d010700c0c8bf001f01070075
:100a400002003700e0cfb3001c0107000000eb00fc
:100a500010079800ddfe3700e4004700c1c8bf0062
:100a600080487800640047008000e800c2c8bf00ea
:100a700080487800640047008080e800c3c8bf0059
:100a80008048780064004700e30040000040eb002d
:100a9000804878002e009000be0090000000a20068
:100aa000610060000004e000070032002e009000aa
:100ab000be0090000280200051010700c0c8bf00a6
:100ac000fe00070002003700e0cfb300fb00070084
:100ad0000000eb0010079800bcfe3700c1c8bf0043
:100ae0000080fb00000f7800710020009e8f100036
:100af0001a003e001e007800f00007001e0078007b
:100b00007800b900400798002000200010079800e6
:100b10000c003700ce0090000080200000804000d4
:100b200010407800004178000100e800400798007c
:100b300002407800e10007001e0090000000e8007d
:100b4000100798001e009000f90f5000f1ff3600ca
:100b5000c0c8bf00d900070002003700e0cfb300d3
:100b6000d60007000000eb001007980097fe370042
:100b700000c0eb00d10007000000eb001007980058
:100b800092fe3700809fbe003400f80000c0b30022
:100b9000a00188000000fa0087e0a900f14780006a
:100ba00000488000808f50000e00320033c2bf002a
:100bb000624060000004e0000a003a000048800043
:100bc000ff006000e08d20000080400010407800b1
:100bd0000080fb00a0118800004880000000e800b1
:100be000004888000080fa003400f9004f00be0081
:100bf00000400600809fbe00821f78003400f8008d
:100c000000c0b300a00188000000fa0087c0a9005e
:100c10000a003700104980007f016000b011800099
:100c200080407800209020000000410001487800ba
:100c3000104980000000e8001049880032c2bf005f
:100c4000614060000004e000f2ff3a000080fa001a
:100c50003400f9004f0178004f00be00004006004c
:100c60000600fa002007980000682900810920008a
:100c7000008fbe002e0090006101b8001e00be0073
:100c80001ffe0700008fbe0080ff2f00f1ff2f0026
:100c90001e0f40005e9748001e00be004c09dd009c
:100ca0004400de0000007100c408de00008fbe00ba
:100cb0001e0078000080fa00000006000400fa0020
:100cc000000f780011079800216c200091407800f7
:100cd00000ceb30000c060005040b300c2e6b700d1
:100ce000616a20009140780000ceb30000c060002f
:100cf0000024a000a6e6b7000000eb0080118800e9
:100d00001e00780061406000614160000123200006
:100d100091407800e0cfb30000c060000240700056
:100d200030e2b7001e009000634060006340600046
:100d300000414000012320009140780090cfb30093
:100d400000c060000240700030e2b70031e2a8004d
:100d50000000eb00901188003342a8000000eb0077
:100d6000f04788000000eb00004888000000eb001e
:100d7000104988000000eb002049880087c0a900c6
:100d800087e0a900310b20009140780080cfb300ac
:100d900000c060000024a000b3e0b700310b2000c9
:100da00091407800f0c8b30000c0600001c2b300f9
:100db00001407000b3e0b70097c0a80097e0a8001a
:100dc0000080fa00000006000200fa00000f780020
:100dd0001e007800a2ff0700c01188000080fa0002
:100de000000006000200fa0011498000204980003e
:100df0000001eb00020f7800808f500002003200eb
:100e000010002000000f78001e0078000080fa001b
:100e1000000006000400fa00000f7800060037000a
:100e2000f0ff07000000e000030032001000200087
:100e300010079800050037001e0fe9001e00e000b3
:100e4000f7ff3a000000eb00100798001e0090002a
:100e50000080fa00000006000400fa00114980003a
:100e600020498000808f500003003a000080eb0092
:100e7000100798000e003700204980007f006000b6
:100e80004102200080804000e08d20000080400072
:100e9000104078000080fb00000f7800204980009f
:100ea0000000e800204988001e0078001007980024
:100eb0001e0090000080fa00000006000200fa0008
:100ec000004f7800f0478000ff0060001e4178006e
:100ed000e08d20000080400002487800f04780004c
:100ee0000000e800f047880097e0a900f147800083
:100ef00000488000808f50000e00320033c2bf00d7
:100f0000624060000004e0000a003a0000488000ef
:100f1000ff006000e08d200000804000104078005d
:100f20000080fb00a0118800004880000000e8005d
:100f30000048880097e0a8000080fa000000060042
:100f40000000fa0001488000f04780000080500057
:100f50000000e9007f006000e0468800e046800075
:100f60000080fa00000006000600fa001007980052
:100f7000020037001e407800d0ff07001e009000de
:100f8000104f78001e407800404798004e40900077
:100f90000004e0000200320010c0b3004047980097
:100fa0004e4090009e0090008100e80011079800dc
:100fb0000004e000efff3a000080fa0000000600a5
:100fc0000400fa00000f78001107980004003700b1
:100fd0001e007800104078001e0fe800b7ff0700e1
:100fe0001e0090000000e900100798001e0090000d
:100ff000e10f4000f6ff3a000080fa000000060012
:1010000091018800040420009001ba00035978007f
:101010000380fd0003597800b081ba0003597800bd
:101020001400b100f8ff3a00000006002304240079
:10103000033b8800910188000008bb000500fc000c
:1010400050052000303b8800a00a2000303b88007b
:1010500061e7a8000000000000000000000006009a
:1010600013002400033b8800910188000504200040
:10107000b281fb003282fb000480fd00830172001c
:101080000308bb00b281fb000398bb001500b10050
:10109000f7ff3a000500fc0050052000303b8800b7
:1010a000a00a2000303b880061e7a8000000000093
:1010b0000000000000000600004001000800fa00e7
:1010c00020079800614798000000eb001007980087
:1010d0001e0037002e0090001000be00004f780068
:1010e0002e0090001000be008100d1000080d300cf
:1010f0002e0190000089be006e4090001e406800e6
:101100000080fb00610060000004e0000800320085
:101110002e0090001001be000032280081db2e005e
:1011200000006900818069002e0190000089be00e6
:101130006e4090000080fb000000d10060479800e6
:101140001e0090000000e800100798001e009000ac
:10115000e70f5000dfff34000080fa0000000600b7
:101160001c00fa0070079800010f9800120f9800f9
:10117000230f9800028020007e0090008e089000cf
:101180009fff070000802000680040001001be00a3
:101190007e0090008e089000800f5100818f5900d2
:1011a0000300320040012000300f98008c0037000f
:1011b000008020006c0040001000be0002002000f3
:1011c000f3ff2f000002780081027800020078000f
:1011d0008300780000016200018062006102b800b3
:1011e000440f9800550f98004e089000de089000bc
:1011f000c000dd0000002000400f9800510f980053
:101200004e089000de0890006112b800440f98006c
:10121000550f98004e099000de0990000200700002
:1012200083807000e00f5000e08f58000300320010
:1012300053012000330f9800690037000080200020
:101240001000be00100798002107980000802000c1
:10125000640040001002be00340798004507980063
:10126000008020006c0040001000be00800078006c
:101270001e089000010878003e009000ce0090000b
:101280002e0990000089be000080eb008080eb00fa
:10129000500798006107980040002000000f780078
:1012a000070037009e00780000802000008040008a
:1012b000904078006a00470080ff07001e0fe8009a
:1012c000f00b20009e0f1000f6ff34003e0190004e
:1012d000ce01900000f82f00f1ff2f000200400027
:1012e0008380480030079800410798007e009000f6
:1012f0008e0890000008b0000180b00070079800d0
:10130000010f98001f003700028020007e0090002f
:101310008e0890003aff07007e0090008e08900033
:101320000008b0000180b00070079800010f98001d
:101330003e019000ce01900000f82f00f1ff2f0039
:101340000200400083804800300798004107980061
:101350000000eb00000f7800070037009e007800c7
:101360000080200000804000904078006a00470024
:1013700052ff07001e0fe800f00b20009e0f100028
:10138000f6ff34003e009000ce009000e00f5000c9
:10139000e08f5800dcff3c005e009000ee00900003
:1013a0000080ea008180ea005007980061079800f9
:1013b0005e019000ee0190001e009000ae009000d3
:1013c000800f5100818f5900030032007501200009
:1013d000350f9800020037000000eb00300f980036
:1013e0003e0890000080fa00000006000000fe00a9
:1013f00000080000dc00000000000000dc08000025
:0c1400004a000000000000000000000096
:020000040000fa
:102020003400f800881f780008c0b300a8018800b9
:102030004f0478000000fa0087e0a9000080fa0051
:082040003400f9000040060025
:020000040000fa
:102220003400f800881f780008c0b300a8018800b7
:102230004f0478000000fa0087c0a9000080fa006f
:082240003400f9000040060023
:020000040000fa
:102420003400f800881f780008c0b300a8018800b5
:102430004f0478000000fa008400a9000080fa0030
:082440003400f9000040060021
:020000040000fa
:102620003400f800881f780008c0b300a8018800b3
:102630004f0478000000fa0084e0a9000080fa004e
:082640003400f900004006001f
:020000040000fa
:102820003400f800881f780008c0b300a8018800b1
:102830004f0478000000fa008500a9000080fa002b
:082840003400f900004006001d
:020000040000fa
:020000040001f9
:0457f800be7a000075
:020000040000fa
:020000040001f9
:0457fc007f3f0000eb
:020000040000fa
:10000800f6090000f6090000f6090000f6090000ec
:10001800f6090000f6090000f6090000f6090000dc
:10002800f6090000f6090000f6090000f6090000cc
:10003800f6090000f6090000f6090000f6090000bc
:10004800f6090000f6090000f6090000f6090000ac
:10005800f6090000f6090000f6090000f60900009c
:10006800f6090000f6090000f6090000f60900008c
:10007800f6090000f6090000f6090000f60900007c
:10008800f6090000f6090000f6090000f60900006c
:10009800f6090000f6090000fa050000c205000094
:1000a800f6090000f6090000f6090000f60900004c
:1000b800f6090000f6090000f6090000f60900003c
:1000c800f6090000f6090000f6090000f60900002c
:1000d800f6090000f6090000f6090000f60900001c
:1000e800f6090000f6090000f6090000f60900000c
:1000f800f6090000f6090000f6090000f6090000fc
:10010800f6090000f6090000f6090000f6090000eb
:10011800f6090000f6090000f6090000f6090000db
:10012800f6090000f6090000f6090000f6090000cb
:10013800f6090000f6090000f6090000f6090000bb
:10014800f6090000f6090000f6090000f6090000ab
:10015800f6090000f6090000f6090000f60900009b
:10016800f6090000f6090000f6090000f60900008b
:10017800f6090000f6090000f6090000f60900007b
:10018800f6090000f6090000f6090000f60900006b
:10019800f6090000f6090000f6090000f60900005b
:1001a800f6090000f6090000f6090000f60900004b
:1001b800f6090000f6090000f6090000f60900003b
:1001c800f6090000f6090000f6090000f60900002b
:1001d800f6090000f6090000f6090000f60900001b
:1001e800f6090000f6090000f6090000f60900000b
:0801f800f6090000f609000001
:020000040000fa
:10020800f6090000f6090000f6090000f6090000ea
:10021800f6090000f6090000f6090000f6090000da
:1002280010120000f6090000f6090000f6090000a7
:10023800f6090000f6090000f60900001013000096
:1002480010140000f6090000f6090000f609000085
:10025800f6090000f6090000f6090000f60900009a
:10026800f6090000f6090000f6090000f60900008a
:10027800f6090000f6090000f6090000f60900007a
:10028800f6090000f6090000f6090000f60900006a
:10029800f6090000f6090000101100001010000017
:1002a800f6090000f6090000f6090000f60900004a
:1002b800f6090000f6090000f6090000f60900003a
:1002c800f6090000f6090000f6090000f60900002a
:1002d800f6090000f6090000f6090000f60900001a
:1002e800f6090000f6090000f6090000f60900000a
:1002f800f6090000f6090000f6090000f6090000fa
:10030800f6090000f6090000f6090000f6090000e9
:10031800f6090000f6090000f6090000f6090000d9
:10032800f6090000f6090000f6090000f6090000c9
:10033800f6090000f6090000f6090000f6090000b9
:10034800f6090000f6090000f6090000f6090000a9
:10035800f6090000f6090000f6090000f609000099
:10036800f6090000f6090000f6090000f609000089
:10037800f6090000f6090000f6090000f609000079
:10038800f6090000f6090000f6090000f609000069
:10039800f6090000f6090000f6090000f609000059
:1003a800f6090000f6090000f6090000f609000049
:1003b800f6090000f6090000f6090000f609000039
:1003c800f6090000f6090000f6090000f609000029
:1003d800f6090000f6090000f6090000f609000019
:1003e800f6090000f6090000f6090000f609000009
:0803f800f6090000f6090000ff
:00000001FF
