:020000040000FA
:1000000080EF01F00000000010EF00F000000000A1
:0C00100054EF00F000000000A2EF01F02F
:10002000E9CF80F0EACF81F09EA639D09E96C7A88E
:100030000CD074AE06D03F0E741674C071F0746AA2
:100040002ED074AC2CD0746A2AD0C7A013D0C7BAF3
:1000500005D0748EC950FF0E716E21D01F0E74141E
:1000600000EEE0F0C9CFEBFFEB507326742ABF0E11
:10007000741615D0C7A413D0748C1F0E741400EE20
:10008000C0F0706203D072C0EBFFEB6CEBCFC9FF26
:10009000C688EB507226742A7F0E741600D080C07A
:1000A000E9FF81C0EAFF110012EE00F022EE00F03D
:1000B000F86A5CEF00F01200F250800B03E09D50F4
:1000C000080B13E1746A716A736A010E706E0001A5
:1000D000C06994869488C76A3E0EC66EC56A9F86BC
:1000E0009D86D08EF28EB00EC86E1F0ED014756E27
:1000F000C00EFC14751292988998715001E1A4D039
:10010000FF0E715C01E1A0D04F0EC86E010E706E43
:10011000690E735C04E00001FC0EC06F8FD0E1C07B
:1001200082F0E2C083F00001E051040A6DE07D0A34
:1001300049E00F0A1FE0060A01E07FD0040E715C5F
:1001400015E10400C10EE66E000EE66E82C0E6FF09
:1001500083C0E6FF26EC01F0E552E552E552E55298
:100160000001700EC06F090E706E03D00001FE0E0C
:10017000C06F64D00C0E715C21E104000001000E20
:10018000825D030E835906E20001FA0EC06F010E74
:10019000706E54D0E30EE66E000EE66E82C0E6FF8F
:1001A00083C0E6FF3CEC01F0E552E552E552E55232
:1001B0000001760EC06F010E706E03D00001FE0EBE
:1001C000C06F3CD0040E715C1BE104000001000E06
:1001D000825D030E835906E20001FA0EC06F010E24
:1001E000706E2CD082C0E6FF83C0E6FF60EC01F0A9
:1001F000E552E5520001790EC06F010E706E03D01A
:100200000001FE0EC06F1AD0020E715C12E10400F4
:100210000001070EC16F0001070EC26F0001420E00
:10022000C36F75C0C4F00001040EC06F050E706E80
:1002300003D00001FE0EC06F01D0FF00970E726E5A
:10024000716A736AB00EC86E58D71200FE0EE3CF03
:10025000F6FFFF0EE3CFF7FFF86AFC0EE3CFE9FFEE
:10026000FD0EE3CFEAFF080E0900F5CFEEFFFF0F0A
:10027000D8A434EF01F01200FE0EE3CFF6FFFF0E1C
:10028000E3CFF7FFF86AFC0EE3CFE9FFFD0EE3CF03
:10029000EAFF080EEECFF5FF0D00FF0FD8A44AEFDE
:1002A00001F00A008998A68EA69CA684F29E550E9F
:1002B000A76EAA0EA76EA682F28EA6948988120057
:1002C000FE0EE3CFF6FFFF0EE3CFF7FFF86A899843
:1002D000A68EA69CA684A688F29E550EA76EAA0E90
:0C02E000A76EA682F28EA69489881200F8
:10030000A5EF01F0FFFFFFFFFFFFFFFFFFFFFFFF74
:10031000FFFFFFFFFFFFFFFFFFFFFFFFFFFFFFFFED
:10032000FFFFFFFFFFFFFFFFFFFFFFFFFFFFFFFFDD
:10033000FFFFFFFFFFFFFFFFFFFFFFFFFFFFFFFFCD
:0803400008EF00F0A8EF01F046
:020348000000B3
:06034A0008EF00F01200B4
:02035000120099
:020000040030CA
:08000000FFFAFEFFFFFFFBFF0A
:00000001FF
