:020000040000FA
:1000000080EF01F00000000010EF00F000000000A1
:0C00100054EF00F000000000A2EF01F02F
:10002000E9CF80F0EACF81F09EA639D09E96C7A88E
:100030000CD074AE06D03F0E741674C071F0746AA2
:100040002ED074AC2CD0746A2AD0C7A013D0C7BAF3
:1000500005D0748EC950FF0E716E21D01F0E74141E
:1000600000EEE0F0C9CFEBFFEB507326742ABF0E11
:10007000741615D0C7A413D0748C1F0E741400EE20
:10008000C0F0706203D072C0EBFFEB6CEBCFC9FF26
:10009000C688EB507226742A7F0E741600D080C07A
:1000A000E9FF81C0EAFF110012EE00F022EE00F03D
:1000B000F86A5CEF00F01200F250800B03E09D50F4
:1000C000080B13E1746A716A736A010E706E0001A5
:1000D000C06994869488C76A3E0EC66EC56A9F86BC
:1000E0009D86D08EF28EB00EC86E1F0ED014756E27
:1000F000C00EFC14751292988998715001E1A4D039
:10010000FF0E715C01E1A0D04F0EC86E010E706E43
:10011000690E735C04E00001FC0EC06F8FD0E1C07B
:1001200082F0E2C083F00001E051040A6DE07D0A34
:1001300049E00F0A1FE0060A01E07FD0040E715C5F
:1001400015E10400C10EE66E000EE66E82C0E6FF09
:1001500083C0E6FF26EC01F0E552E552E552E55298
:100160000001700EC06F090E706E03D00001FE0E0C
:10017000C06F64D00C0E715C21E104000001000E20
:10018000825D030E835906E20001FA0EC06F010E74
:10019000706E54D0E30EE66E000EE66E82C0E6FF8F
:1001A00083C0E6FF3CEC01F0E552E552E552E55232
:1001B0000001760EC06F010E706E03D00001FE0EBE
:1001C000C06F3CD0040E715C1BE104000001000E06
:1001D000825D030E835906E20001FA0EC06F010E24
:1001E000706E2CD082C0E6FF83C0E6FF60EC01F0A9
:1001F000E552E5520001790EC06F010E706E03D01A
:100200000001FE0EC06F1AD0020E715C12E10400F4
:100210000001080EC16F0001020EC26F0001420E04
:10022000C36F75C0C4F00001040EC06F050E706E80
:1002300003D00001FE0EC06F01D0FF00970E726E5A
:10024000716A736AB00EC86E58D71200FE0EE3CF03
:10025000F6FFFF0EE3CFF7FFF86AFC0EE3CFE9FFEE
:10026000FD0EE3CFEAFF080E0900F5CFEEFFFF0F0A
:10027000D8A434EF01F01200FE0EE3CFF6FFFF0E1C
:10028000E3CFF7FFF86AFC0EE3CFE9FFFD0EE3CF03
:10029000EAFF080EEECFF5FF0D00FF0FD8A44AEFDE
:1002A00001F00A008998A68EA69CA684F29E550E9F
:1002B000A76EAA0EA76EA682F28EA6948988120057
:1002C000FE0EE3CFF6FFFF0EE3CFF7FFF86A899843
:1002D000A68EA69CA684A688F29E550EA76EAA0E90
:0C02E000A76EA682F28EA69489881200F8
:1003000060EF07F0FFFFFFFFFFFFFFFFFFFFFFFFB3
:10031000FFFFFFFFFFFFFFFFFFFFFFFFFFFFFFFFED
:10032000FFFFFFFFFFFFFFFFFFFFFFFFFFFFFFFFDD
:10033000FFFFFFFFFFFFFFFFFFFFFFFFFFFFFFFFCD
:0803400008EF00F082EF07F066
:08034800D9CFE6FFE1CFD9FF98
:100350004C0EE76EE72EFED7E76AE72EFED7FE0EBD
:10036000DB06F6E1E552E7CFD9FF1200D9CFE6FF71
:10037000E1CFD9FF8C8C8C8A8C8E959C959A959E1A
:10038000140EE66EE1DFE5528C9E1F0EE66EC0D8BD
:10039000E552210EE66EE66AA4D8E552E552100E4B
:1003A000E66E170EE66E9DD8E552E552E66A0E0E31
:1003B000E66E97D8E552E552460EE66E030EE66EFF
:1003C00090D8E552E552460EE66E010EE66E89D8EB
:1003D000E552E552800EE66E020EE66E82D8E552D8
:1003E000E552400EE66E040EE66E7BD8E552E5520D
:1003F000610EE66EE66A75D8E552E552470EE66E86
:10040000070EE66E6ED8E552E5520001470E8A6F80
:10041000E66A010EE66E65D8E552E552070EE66E15
:10042000020EE66E5ED8E552E552CB0EE66E030E86
:10043000E66E57D8E552E552E668040EE66E51D8EE
:10044000E552E552190EE66E050EE66E4AD8E55203
:10045000E552FE0EDBCFE6FF060EE66E42D8E55211
:10046000E552210EE66EE66A3CD8E552E552440EAE
:10047000E66E0C0EE66E35D8E552E552E668070EDC
:10048000E66E2FD8E552E552110EE66E0F0EE66EBF
:1004900028D8E552E55200018D6BE552E7CFD9FF30
:1004A0001200170EE66E34D8E55200018B6F070E6E
:1004B0008B178BA308D0800EE66E0D0EE66E11D85A
:1004C000E552E55206D0E66A0D0EE66E0AD8E55210
:1004D000E5521200220EE66EE66A03D8E552E552B6
:1004E0001200D9CFE6FFE1CFD9FFFE0EDB50600945
:1004F000836EFD0EDB508A6E936A8C9C00000000B8
:10050000000000008C8C9368E552E7CFD9FF120001
:10051000D9CFE6FFE1CFD9FFE6529368FE0EDB505C
:100520006009836E8C9A0000000000008150DF6E2D
:100530008C8ADF5000D0E552E552E7CFD9FF120098
:10054000D9CFE6FFE1CFD9FF060EE126010E8AC022
:10055000DBFF400EE66E070EE66EC3DFE552E552A6
:10056000E66A080EE66EBDDFE552E552010EDBCF0E
:10057000E6FF090EE66EB5DFE552E552040EE66EC3
:100580000A0EE66EAEDFE552E552E66A0B0EE66E47
:10059000A8DFE552E5520A0EE66EE66AA2DFE552F2
:1005A000E552100EE66EB4DFE552E76E020EE7CFBD
:1005B000DBFF100EE66EACDFE55200018A6F100E15
:1005C000E66EA6DFE552E76E040EE7CFDBFF100E06
:1005D000E66E9EDFE552E76E050EE7CFDBFF460EC7
:1005E00000018A5D03E3800E8A5D04E300018C81D3
:1005F000000E86D0D950040FE96EDACFEAFF040E60
:10060000EE5E000EED5AD950040FE96EDACFEAFF24
:10061000FC0ED880EE54000EED5409E200018C85EA
:10062000FC0EF36E040EF3CFDBFF050EDB6A400E0B
:10063000E66E070EE66E55DFE552E552040EE66EF5
:10064000080EE66E4EDFE552E552010EDBCFE6FF07
:10065000090EE66E46DFE552E552040EDBCFE6FFFB
:100660000A0EE66E3EDFE552E552E66A0B0EE66ED6
:1006700038DFE552E5520A0EE66EE66A32DFE552F1
:10068000E552DF6A040EDB50DF5C16E2100EE66E08
:100690003FDFE552E66EDF50E76EFD0EDBCFE9FF90
:1006A000FE0EDBCFEAFFE750E926000EEA22E55214
:1006B000E750EF6EDF2AE6D7400EE66E070EE66ED5
:1006C00010DFE552E55200018A05E76E030EE7CF21
:1006D000DBFF460EF36E030EDBCFF4FFF350F45C4A
:1006E00005E27F0EF36E030EF3CFDBFF030EDBCFCD
:1006F000E6FFE66EF6DEE552E552040EDB5000D072
:10070000D9CFE1FFE552E7CFD9FF1200D9CFE6FFFD
:10071000E1CFD9FFE65200018D5107E0070EE66EEA
:10072000F7DEE552020B01E1F9D7020EE66E070E85
:10073000E66ED7DEE552E552400EE66E070EE66E37
:10074000D0DEE552E552E66A080EE66ECADEE552F4
:10075000E552400EE66E090EE66EC3DEE552E55246
:10076000FC0EDBCFE6FF0A0EE66EBBDEE552E5527D
:10077000E66A0B0EE66EB5DEE552E552120EE66E47
:10078000E66AAFDEE552E552DF6AFC0EDB50DF5C65
:1007900015E2DF50E76EFD0EDBCFE9FFFE0EDBCF8B
:1007A000EAFFE750E926000EEA22EF50E66E100E4F
:1007B000E66E97DEE552E552DF2AE7D7400EE66E99
:1007C000070EE66E8EDEE552E552400EE66E040E32
:1007D000E66E87DEE552E552FC0EDBCFE6FF050E46
:1007E000E66E7FDEE552E552E66A060EE66E79DEDB
:1007F000E552E552240EE66EE66A73DEE552E552F6
:100800000001010E8D6FE552E552E7CFD9FF1200CE
:1008100006C100F107C101F108C102F109C103F1EC
:100820000AC104F10BC105F10101066B070E076F48
:10083000CB0E086F0969190E0A6F89C00BF11200FF
:100840000101020E156F16C120F117C121F118C167
:1008500022F119C123F11AC124F11BC125F11CC1D8
:1008600026F11DC127F11EC128F11FC129F1166B08
:10087000070E176FCB0E186F1969190E1A6F89C002
:100880001BF185C01CF186C01DF187C01EF188C018
:100890001FF11200D9CFE6FFE1CFD9FFE6521AC10E
:1008A0001EF11BC11FF11CC120F11DC121F185C02A
:1008B0001AF186C01BF187C01CF188C01DF101012F
:1008C000186B196B0F0E0E15040DF350DF6E786A5E
:1008D000796ADFCFE6FF0E0EE66E010EE66E85EC5E
:1008E00005F0E552E552E5520001791D0101196F4D
:1008F000781C186FE552E552E7CFD9FF1200D9CF27
:10090000E6FFE1CFD9FFE65222C1DFFF24C122F189
:10091000DFCF24F123C1DFFF25C123F1DFCF25F194
:100920000101286B296B786A110E796E080EE66E4C
:100930001A0EE66E010EE66E85EC05F0E552E55204
:10094000E552020EE66E260EE66E010EE66E85ECB0
:1009500005F0E552E552E55227C1E6FF220EE66EAC
:10096000010EE66E85EC05F0E552E552E552000118
:10097000791D0101296F0001781D0101286FE552E1
:10098000E552E7CFD9FF1200D9CFE6FFE1CFD9FF7B
:10099000E652080E01010C5D2BE1060E0D5D28E10B
:1009A000000188510101295D21E100018751010108
:1009B000285D1CE115051AE1080E105D17E11151C3
:1009C00015E1060E125D12E1040E135D0FE1000148
:1009D00086510101275D0AE1000185510101265D73
:1009E00005E116DF2DDF010E8BD002D0000E88D07E
:1009F000080E01010C5D01E081D00D5101E07ED0B7
:100A00000001855101011E5D01E078D00001865191
:100A100001011F5D73E1000187510101205D6EE15D
:100A2000000188510101215D69E1170529E1080EE6
:100A3000225D02E0FF0E64D0EBDE2CDF0101226BB1
:100A4000236B246B256B11C1DFFF0F0E0E15040DF8
:100A5000F350DF5E786A796ADFCFE6FF220EE66E3A
:100A6000010EE66E85EC05F0E552E552E552000117
:100A7000791D0101256F781C246F020E41D03ED0F4
:100A8000110E175D36E1070E245D03E1A10E255D11
:100A900002E0880E35D0786A110E796E080EE66E87
:100AA0001A0EE66E010EE66E85EC05F0E552E55293
:100AB000E552020EE66E260EE66E010EE66E85EC3F
:100AC00005F0E552E552E55227C1E6FF220EE66E3B
:100AD000010EE66E85EC05F0E552E552E5520001A7
:100AE000781D01E1791D02E0890E0AD0030E08D0BD
:100AF00005D0060E175D02E1FF0E02D0000E00D0F9
:100B0000E552E552E7CFD9FF1200FE0EE3CFE9FF31
:100B1000FF0EE3CFEAFFFD0EE3CFF4FFF36AF450DC
:100B2000FE0B0BE0F3CFD8FFEE507822EE50792287
:100B3000D8CFF3FFF406F406F2D7F3CFD8FFF45280
:100B400004E0EF507822000E7922000E78227922FC
:100B500012002F0E926E93689468E00E956E890EC7
:100B6000C16E120012EE00F022EE00F0F86A1F0EC5
:100B7000D014756EC00EFC147512EBDF8988746A90
:100B8000716A736A010E706E0001C0699486948860
:100B9000C76A3E0EC66EC56A9F869D86D08EF28E4F
:100BA000B00EC86E00018C6BE0EC1FF089C0E6FF50
:100BB000B6EC01F0E55251EC02F06AEC02F0E2EF23
:100BC00005F01200D9CFE6FFE1CFD9FF080EE126EC
:100BD000050EDB6A060EDB6A070EDB6AB00EC86E16
:100BE000715023E0FF0E715C20E04F0EC86E010EC5
:100BF000706E690E735C04E00001FC0EC06F0FD0D4
:100C00000001E051040A03E0740A01E005D0F29CFF
:100C1000040008EF00F003D00001F00EC06F970E43
:100C2000726E716A736AB00EC86E84A47FD0070EAC
:100C3000E66E88EC02F0E552DF6EDFA80AD0000114
:100C40008C83100EE66E070EE66E71EC02F0E55234
:100C5000E552DFA06BD0010EE66E070EE66E71EC7A
:100C600002F0E552E552030EE66E88EC02F0E55222
:100C7000E76E010EE7CFDBFF060EE66E88EC02F0B2
:100C8000E552E76E020EE7CFDBFF020EDB500001FC
:100C90008A5D01E14BD0000EE66E010EE66EA0EC1F
:100CA00002F0E552E552E76E030EE7CFDBFF030EDD
:100CB000DB5037E0C4EC04F0E76E040EE7CFDBFF57
:100CC000040EDB50030A12E0020A03E0030A01E00B
:100CD00028D0030EDBCFE6FF000EE66E010EE66EB7
:100CE00086EC03F0E552E552E5521BD0080E0101F7
:100CF000275DE66E31D8E552000912E008EC04F0F9
:100D00004AEC04F07FEC04F0030EDBCFE6FF000EAC
:100D1000E66E010EE66E86EC03F0E552E552E55212
:100D200000D0020EDB5000018A5D9DE1D950050F15
:100D3000E96EDACFEAFFEE2A000EEE22000EEE2276
:100D4000070EDB50E00B01E1040048D7D9CFE1FFEB
:100D5000E552E7CFD9FF1200D9CFE6FFE1CFD9FFA7
:100D60002BC182F02CC183F001012A51210A01E13B
:100D700080D0250A66E07D0A45E00F0A1EE0060ADB
:100D800001E079D0FE0EDB50090813E104002B0EC0
:100D9000E66E010EE66E82C0E6FF83C0E6FF26EC3B
:100DA00001F0E552E552E552E5520101700E2A6F5D
:100DB00003D00101FE0E2A6F60D0FE0EDB500B083F
:100DC0001DE104000001C00E825D0E0E835904E295
:100DD0000101FA0E2A6F51D02D0EE66E010EE66E5D
:100DE00082C0E6FF83C0E6FF3CEC01F0E552E5522D
:100DF000E552E5520101760E2A6F03D00101FE0E85
:100E00002A6F3BD0FE0EDB50030817E104000001FF
:100E1000C00E825D0E0E835904E20101FA0E2A6FA4
:100E20002CD082C0E6FF83C0E6FF60EC01F0E55203
:100E3000E5520101790E2A6F03D00101FE0E2A6FDF
:100E40001CD0FE0EDB50050810E104000101080E65
:100E50002B6F0101020E2C6F0101550E2D6F75C015
:100E60002EF10101040E2A6F03D00101FE0E2A6F3C
:100E700004D0040002D0000E02D0010E00D0E552D2
:060E8000E7CFD9FF1200CC
:100EC000DAEF07F0FFFFFFFFFFFFFFFFFFFFFFFF6E
:100ED000FFFFFFFFFFFFFFFFFFFFFFFFFFFFFFFF22
:100EE000FFFFFFFFFFFFFFFFFFFFFFFFFFFFFFFF12
:100EF000FFFFFFFFFFFFFFFFFFFFFFFFFFFFFFFF02
:080F0000B2EF05F000EF18F05C
:080F08000100CC0F0000AA005B
:060F1000000002000000D9
:0A0F1600080EF66E0F0EF76E000EC7
:100F2000F86E00010900F550A56F0900F550A66F95
:100F300003E1A56701D03DD00900F550A06F09007D
:100F4000F550A16F0900F550A26F09000900F55096
:100F5000E96E0900F550EA6E090009000900F55034
:100F6000A36F0900F550A46F09000900F6CFA7F0A0
:100F7000F7CFA8F0F8CFA9F0A0C0F6FFA1C0F7FF07
:100F8000A2C0F8FF0001A35302E1A45307E0090047
:100F9000F550EE6EA307F8E2A407F9D7A7C0F6FF55
:100FA000A8C0F7FFA9C0F8FF0001A507000EA65BC7
:040FB000BFD7120095
:0C0FB40012EE00F022EE00F0F86A0B9C38
:0C0FC0008BEC07F0C1EC1BF0FDD7120019
:020FCC000080A3
:10300000776ED8CF84F0F2A403D0F294762A29D038
:103010009EA813D09DA811D0E9CF80F0EACF81F00F
:103020000150006202D09D9818D003EE00F0EBCF63
:10303000ADFF012A3F0E011610D09EAA12D09DAA04
:1030400010D0E9CF80F0EACF81F0025003EE40F0DB
:10305000AECFEBFF022A3F0E021680C0E9FF81C00F
:10306000EAFF775084C0D8FF1000D59CD59AD5963A
:10307000D580D592D584D58EF194D66AD76AD08E74
:10308000F28AF28C1200948C948E810EAF6E240E14
:10309000AC6E900EAB6E006A016A026A036A9F987A
:1030A0009F9AD08EF28CF28E9D8A12000350025CA1
:1030B00002E1000E01D0010E046E056A04BE05682F
:1030C00004C0F3FF05C0F4FF00D01200D9CFE6FF23
:1030D000E1CFD9FF020EE1260350025C03E1F36861
:1030E000F4681BD00350EA6A400FE96E030EEA222F
:1030F000EFCF04F0056A04BE056804C0DEFF05C01A
:10310000DDFF032A3F0E0316DECF04F0DDCF05F00E
:1031100004C0F3FF05C0F4FF00D0D9CFE1FFE552B2
:10312000E7CFD9FF1200D9CFE6FFE1CFD9FF00509A
:10313000EA6A000FE96E030EEA22FE0EDBCFEFFF14
:103140009D98002A3F0E00169D88E552E7CFD9FFD3
:1031500012000050015CFF0F3F0B0001AC6FAC513F
:1031600000D01200D9CFE6FFE1CFD9FFFC0EDBCFB4
:10317000F3FFDB06F35000090EE0FD0EDBCFE9FFA5
:10318000DB2AFE0EDBCFEAFF01E3DB2AEF50E66E1F
:10319000CADFE552EBD7E552E7CFD9FF1200D9CF0E
:1031A000E6FFE1CFD9FFE652140EE66E88EC02F09E
:1031B000E552DF6EFE0EDB5002E0DF8602D0000E2D
:1031C000DF96DFCFE6FF140EE66E71EC02F0E552FB
:1031D000E552000EDF80DFCFE6FF140EE66E71ECE5
:1031E00002F0E552E552000EDF90DFCFE6FF140E4D
:1031F000E66E71EC02F0E552E552E552E552E7CF9A
:10320000D9FF1200D9CFE6FFE1CFD9FF020EE126A8
:10321000140EE66E88EC02F0E552DF6E000EDF80E1
:10322000DFCFE6FF140EE66E71EC02F0E552E552D8
:10323000140EE66E88EC02F0E552E76E010EE7CF61
:10324000DBFF000EDF90DFCFE6FF140EE66E71ECC1
:1032500002F0E552E552010EDB50040B00D0D9CF4D
:10326000E1FFE552E7CFD9FF1200D9CFE6FFE1CF6A
:10327000D9FF070EE126020EF36E030EF3CFDBFF3C
:10328000680EF36E040EF3CFDBFFFE0EDB50040D71
:10329000FE0EF3CFDBFFFE0EDB82FE0EDB50046E74
:1032A000056AD950030FE96EDACFEAFF0450EE1237
:1032B0000550ED12140EE66E88EC02F0E552DF6E5A
:1032C000000EDF92DFCFE6FF140EE66E71EC02F027
:1032D000E552E552010EDB6A800EF36E020EF3CF6B
:1032E000DBFFDF6A0F0EDF5C29E2030EDBCF06F0A7
:1032F000040EDBCF07F0010EDB500614046E020E45
:10330000DB500714056E0450051005E0010EE66E53
:1033100046DFE55203D0E66A42DFE552D950010F9D
:10332000E96EDACFEAFF010E0F0B06E0EC52D890FF
:10333000ED32EF32E806FAE1DF2AD4D7140EE66E5A
:1033400088EC02F0E552DF6EDF82DFCFE6FF140E7D
:10335000E66E71EC02F0E552E552010EDB6A800E7A
:10336000F36E020EF3CFDBFF050EDB6A060EDB6A9F
:10337000DF6A100EDF5C22E245DF00090FE0010E7C
:10338000DBCF04F0020EDBCF05F0D950050FE96E5C
:10339000DACFEAFF0450EE120550ED12D950010FBA
:1033A000E96EDACFEAFF010E0F0B06E0EC52D8907F
:1033B000ED32EF32E806FAE1DF2ADBD7050EDBCF8C
:1033C00004F0060EDBCF05F004C0F3FF05C0F4FFE8
:1033D00000D0D9CFE1FFE552E7CFD9FF1200D9CF16
:1033E000E6FFE1CFD9FF050EE126020EF36E030ED4
:1033F000F3CFDBFF580EF36E040EF3CFDBFFFE0EB0
:10340000DB50040DFE0EF3CFDBFFFE0EDB82FE0E63
:10341000DB50046E056AD950030FE96EDACFEAFF7C
:103420000450EE120550ED12140EE66E88EC02F018
:10343000E552DF6E000EDF92DFCFE6FF140EE66E80
:1034400071EC02F0E552E552010EDB6A800EF36E7C
:10345000020EF3CFDBFFDF6A100EDF5C29E2030E02
:10346000DBCF06F0040EDBCF07F0010EDB500614B5
:10347000046E020EDB500714056E0450051005E0C3
:10348000010EE66E8CDEE55203D0E66A88DEE55278
:10349000D950010FE96EDACFEAFF010E0F0B06E0FB
:1034A000EC52D890ED32EF32E806FAE1DF2AD4D7B9
:1034B000010EDB6A800EF36E020EF3CFDBFFDF6AD4
:1034C000100EDF5C29E2FC0EDBCF06F0FD0EDBCF39
:1034D00007F0010EDB500614046E020EDB500714D9
:1034E000056E0450051005E0010EE66E58DEE5524B
:1034F00003D0E66A54DEE552D950010FE96EDACF07
:10350000EAFF010E0F0B06E0EC52D890ED32EF32DD
:10351000E806FAE1DF2AD4D7D9CFE1FFE552E7CFB9
:10352000D9FF1200D9CFE6FFE1CFD9FFE652140E42
:10353000E66E88EC02F0E552DF6E000EDF92DFCF20
:10354000E6FF140EE66E71EC02F0E552E552DF6A1A
:10355000200EDF5C06E2010EE66E21DEE552DF2A78
:10356000F7D7E552E552E7CFD9FF1200D9CFE6FFF2
:10357000E1CFD9FF020EE126D5DF610EE66EE66AE5
:10358000040EE66E2CDFE552E552E552D9CFE1FF9D
:10359000E552E7CFD9FF1200D9CFE6FFE1CFD9FF3F
:1035A00045EC1BF0FE0EDB50E824E66E7BEC1BF0D6
:1035B000E5526FEC1BF0000904E152EC1BF0FF0E2A
:1035C00023D0FB0EDB501CE0FC0EDBCFE9FFFD0E31
:1035D000DBCFEAFFEF50E66E7BEC1BF0E5526FECC1
:1035E0001BF0000905E152EC1BF0FB0EDB500CD088
:1035F000FC0EDB2AFD0E01E3DB2AFB0EDB06E1D726
:1036000052EC1BF0000E00D0E552E7CFD9FF1200BC
:10361000D9CFE6FFE1CFD9FF45EC1BF0FE0EDB5022
:10362000E8240109E66E7BEC1BF0E5526FEC1BF021
:10363000000904E152EC1BF0FF0E23D0FB0EDB501F
:103640001EE093EC1BF0E66EFC0EDBCFE9FFFD0EF7
:10365000DBCFEAFFE552E750EF6EFB0EDB0405E13E
:1036600067EC1BF052EC1BF002D05CEC1BF0FC0E84
:10367000DB2AFD0E01E3DB2AFB0EDB06DFD7000EA3
:1036800000D0E552E7CFD9FF1200A5EC1BF0EF8880
:10369000A5EC1BF0EF86A5EC1BF0EF98A5EC1BF05A
:1036A000EF961200A5EC1BF0EF98A5EC1BF0EF864F
:1036B000A5EC1BF0EF881200A5EC1BF0EF98ADEC29
:1036C0001BF0B4EC1BF0A5EC1BF0EF881200A5EC8E
:1036D0001BF0EF88ADEC1BF0B4EC1BF01200A5EC76
:1036E0001BF0EF88ADEC1BF0A5EC1BF0000E82A8E0
:1036F000AC0EEF961200FF0EE350086E080E096E36
:10370000A5EC1BF008AE02D0EF8802D0EF9800D0F5
:10371000ADEC1BF0B4EC1BF00846092EF1D7A5EC7C
:103720001BF0EF881200A5EC1BF0EF88080E096E65
:10373000ADEC1BF008460890A5EC1BF082B80880A1
:10374000EF96092EF5D7085012000FEE94F08B96E5
:103750008B980000000000001200A5EC1BF0EF8623
:1037600082B61200B0EF1BF0A5EC1BF0EF96120032
:103770002F0E926E93689468E00E956E890EC16E5E
:103780001200D9CFE6FFE1CFD9FF060EE1261F0ECA
:10379000D014756EC00EFC147512EADF35EC18F00B
:1037A000766A00012D0E986F310E996F010E9A6F97
:1037B0000001936B946B956B966B0001100E9D6FDF
:1037C000AAC09EF0ABC09FF0746A716A736A010E62
:1037D000706E0001C06994869488C76A3E0EC66EFA
:1037E000C56A9F869D86D08EF28EB00EC86E00018F
:1037F0008C6B0001976BE0EC1FF089C0E6FFB6EC24
:1038000001F0E55251EC02F0000189BF02D0B6ECA4
:103810001AF06AEC02F043EC18F00400B00EC86E27
:1038200076C092F0D6CF90F0D7CF91F076500001CD
:10383000925D06E076C092F0D6CF90F0D7CF91F0AF
:10384000980EE96E000EEA6EEE500001905D046E77
:10385000EE5000019159056EEE5000019259066E2E
:10386000000E0618E8AE02D0063407D0000ED8804D
:103870000454000E0554000E06540FE22D0E0001F4
:103880009827310E00019923010E00019A230001AF
:10389000932B000E942395239623E00E000191159F
:1038A00000019B6F00019C5100019B5D35E0000110
:1038B0009D071EE10001100E9D6F00018C5113E069
:1038C00000018CA104D00001FE0EAA6FAB690001BB
:1038D0008CA303D00E0E0001AB1300018CA503D006
:1038E000E00E0001AA13AAC09EF0ABC09FF007D063
:1038F000010E0001D8909E379F37E806FBE10001DA
:103900009FAF02D0899801D089880001975102E0C9
:10391000000197079BC09CF071505CE0FF0E715C4A
:1039200059E04F0EC86E010E706E690E735C04E0B4
:103930000001FC0EC06F48D0E0C0DFFFDFBE41D009
:10394000DF50040A21E0740A17E0720A01E035D062
:10395000020E715C0DE193C0C1F094C0C2F095C03D
:10396000C3F096C0C4F0DFCFC0F0050E706E03D078
:103970000001FE0EC06F24D0040E715C04E1F29CC5
:10398000040008EF00F01CD0020E715C12E100018F
:10399000080EC16F0001020EC26F0001500EC36F0E
:1039A00075C0C4F000018C6BDFCFC0F0050E706EE7
:1039B00003D00001FE0EC06F03D00001F00EC06FF7
:1039C00003D00001F00EC06F970E726E716A736AB9
:1039D000B00EC86E84A488D0070EE66E88EC02F0A4
:1039E000E552E76E010EE7CFDBFF010EDBA80AD040
:1039F00000018C83100EE66E070EE66E71EC02F08D
:103A0000E552E552010EDBA06FD0010EE66E070E07
:103A1000E66E71EC02F0E552E552030EE66E88ECBC
:103A200002F0E552E76E020EE7CFDBFF060EE66E10
:103A300088EC02F0E552E76E030EE7CFDBFF030EE2
:103A4000DB5000018A5D01E14FD0000EE66E010EF1
:103A5000E66EA0EC02F0E552E552E76E040EE7CF09
:103A6000DBFF040EDB503BE0C4EC04F0E76E050E18
:103A7000E7CFDBFF050EDB50890A2FE08A0A12E050
:103A8000020A03E0030A01E02AD0040EDBCFE6FFBE
:103A9000000EE66E010EE66E86EC03F0E552E5528E
:103AA000E5521DD0080E0101275DE66E24D8E552CF
:103AB000000912E008EC04F04AEC04F07FEC04F09A
:103AC000040EDBCFE6FF000EE66E010EE66E86EC1E
:103AD00003F0E552E552E55202D000018C89030E55
:103AE000DB5000018A5D99E198D6D9CFE1FFE5521C
:103AF000E7CFD9FF1200D9CFE6FFE1CFD9FFE652D9
:103B000001012A51700A01E1D3D0740A01E1B4D055
:103B1000060A01E19DD0260A5AE0070A33E0010AAD
:103B200004E0030A01E0D1D0D2D09D96C69A030EDC
:103B3000F36EFE0EDBCFF4FFF350F45C22E30001E2
:103B4000975104E00101280E2A6F1BD0FE0EDB0402
:103B5000E66E2B0EE66E010EE66E580EE66ECCECAF
:103B60001AF0E552E552E552E552000907E101017C
:103B70002A0E2A6F00010E0E976F03D00101290E45
:103B80002A6FA5D09D96C69A030EF36EFE0EDBCF6C
:103B9000F4FFF350F45C1AE30001976BFE0EDB04B4
:103BA000E66E2B0EE66E010EE66E580EE66E08EC23
:103BB0001BF0E552E552E552E552000904E101012E
:103BC0002A0E2A6F03D00101290E2A6F80D0030E1E
:103BD000F36EFE0EDBCFF4FFF350F45C35E32BC144
:103BE000DFFFDF500BE0DFCFE6FF2C0EE66E010EAD
:103BF000E66EB2EC18F0E552E552E552020EDF6EC9
:103C000056EC18F0F3CF04F0F4CF05F00450051093
:103C100013E0FE0EDB50DF5C0FE266EC18F0F350B1
:103C2000E66EDF50EA6A2A0FE96E010EEA22E552DB
:103C3000E750EF6EDF2AE4D7020EDF5C01012B6F45
:103C40000101240E2A6F03D00101FE0E2A6F3FD01E
:103C5000FE0EDB5005080CE193C02BF194C02CF153
:103C600095C02DF196C02EF10101020E2A6F03D0EE
:103C70000101FE0E2A6F2BD0FE0EDB50060814E168
:103C80000101080E2B6F0101020E2C6F0101500E75
:103C90002D6F75C02EF100018C6B0101640E2F6F2A
:103CA0000101040E2A6F03D00101FE0E2A6F0FD00E
:103CB000FE0EDB50090805E1F29C0400E2EF05F07E
:103CC00003D00101FE0E2A6F02D0000E02D0010EB9
:0C3CD00000D0E552E552E7CFD9FF12000A
:103FC0000001C00E856FA80E866F010E876F500E20
:0A3FD000886F0001080E896F1200CF
:020000040030CA
:08000000FFFAFEFFFFFFFBFF0A
:00000001FF
