:020000040000FA
:1000000080EF01F00000000010EF00F000000000A1
:0C00100054EF00F000000000A2EF01F02F
:10002000E9CF80F0EACF81F09EA639D09E96C7A88E
:100030000CD074AE06D03F0E741674C071F0746AA2
:100040002ED074AC2CD0746A2AD0C7A013D0C7BAF3
:1000500005D0748EC950FF0E716E21D01F0E74141E
:1000600000EEE0F0C9CFEBFFEB507326742ABF0E11
:10007000741615D0C7A413D0748C1F0E741400EE20
:10008000C0F0706203D072C0EBFFEB6CEBCFC9FF26
:10009000C688EB507226742A7F0E741600D080C07A
:1000A000E9FF81C0EAFF110012EE00F022EE00F03D
:1000B000F86A5CEF00F01200F250800B03E09D50F4
:1000C000080B13E1746A716A736A010E706E0001A5
:1000D000C06994869488C76A3E0EC66EC56A9F86BC
:1000E0009D86D08EF28EB00EC86E1F0ED014756E27
:1000F000C00EFC14751292988998715001E1A4D039
:10010000FF0E715C01E1A0D04F0EC86E010E706E43
:10011000690E735C04E00001FC0EC06F8FD0E1C07B
:1001200082F0E2C083F00001E051040A6DE07D0A34
:1001300049E00F0A1FE0060A01E07FD0040E715C5F
:1001400015E10400C10EE66E000EE66E82C0E6FF09
:1001500083C0E6FF26EC01F0E552E552E552E55298
:100160000001700EC06F090E706E03D00001FE0E0C
:10017000C06F64D00C0E715C21E104000001000E20
:10018000825D030E835906E20001FA0EC06F010E74
:10019000706E54D0E30EE66E000EE66E82C0E6FF8F
:1001A00083C0E6FF3CEC01F0E552E552E552E55232
:1001B0000001760EC06F010E706E03D00001FE0EBE
:1001C000C06F3CD0040E715C1BE104000001000E06
:1001D000825D030E835906E20001FA0EC06F010E24
:1001E000706E2CD082C0E6FF83C0E6FF60EC01F0A9
:1001F000E552E5520001790EC06F010E706E03D01A
:100200000001FE0EC06F1AD0020E715C12E10400F4
:100210000001080EC16F0001010EC26F0001420E05
:10022000C36F75C0C4F00001040EC06F050E706E80
:1002300003D00001FE0EC06F01D0FF00970E726E5A
:10024000716A736AB00EC86E58D71200FE0EE3CF03
:10025000F6FFFF0EE3CFF7FFF86AFC0EE3CFE9FFEE
:10026000FD0EE3CFEAFF080E0900F5CFEEFFFF0F0A
:10027000D8A434EF01F01200FE0EE3CFF6FFFF0E1C
:10028000E3CFF7FFF86AFC0EE3CFE9FFFD0EE3CF03
:10029000EAFF080EEECFF5FF0D00FF0FD8A44AEFDE
:1002A00001F00A008998A68EA69CA684F29E550E9F
:1002B000A76EAA0EA76EA682F28EA6948988120057
:1002C000FE0EE3CFF6FFFF0EE3CFF7FFF86A899843
:1002D000A68EA69CA684A688F29E550EA76EAA0E90
:0C02E000A76EA682F28EA69489881200F8
:100300006CEF02F0FFFFFFFFFFFFFFFFFFFFFFFFAC
:10031000FFFFFFFFFFFFFFFFFFFFFFFFFFFFFFFFED
:10032000FFFFFFFFFFFFFFFFFFFFFFFFFFFFFFFFDD
:10033000FFFFFFFFFFFFFFFFFFFFFFFFFFFFFFFFCD
:0803400008EF00F000EF10F0DF
:080348000100F00400007B013C
:0603500000001600000091
:0A035600480EF66E030EF76E000E5F
:10036000F86E01010900F550A76F0900F550A86F5C
:1003700003E1A76701D03DD00900F550A26F090045
:10038000F550A36F0900F550A46F09000900F5505E
:10039000E96E0900F550EA6E090009000900F55000
:1003A000A56F0900F550A66F09000900F6CFA9F165
:1003B000F7CFAAF1F8CFABF1A2C1F6FFA3C1F7FFC7
:1003C000A4C1F8FF0101A55302E1A65307E009000B
:1003D000F550EE6EA507F8E2A607F9D7A9C1F6FF1A
:1003E000AAC1F7FFABC1F8FF0101A707000EA85B88
:0403F000BFD7120061
:0C03F400D9CFE6FFDACFE6FFFA0EE3CF28
:10040000D9FFFB0EE3CFDAFFFC0EE3CFE9FFFD0ED1
:10041000E3CFEAFFE9CFF3FFEACFF4FFF80EE350B2
:1004200003E1F90EE35008E0F80EE30602E2F90EEC
:10043000E306DECFEEFFF2D7FF0EE3CFDAFFE552A1
:10044000FF0EE3CFD9FFE5521200FB0EE3CFF6FF1C
:10045000FC0EE3CFF7FFFD0EE3CFF8FFFE0EE3CF78
:10046000E9FFFF0EE3CFEAFFE9CFF3FFEACFF4FFA6
:10047000F90EE35003E1FA0EE35009E0F90EE3064A
:1004800002E2FA0EE3060900F5CFEEFFF1D7120003
:100490003F6A3E6A3D6A3C6A200EE76ED89040365D
:1004A0004136423643363C363D363E363F36455081
:1004B0003C5C46503D5847503E5848503F5809E331
:1004C00045503C5E46503D5A47503E5A48503F5A70
:0804D000402AE72EE4D71200D8
:0804D80012EE00F022EE00F02C
:1004E000F86A4B9CABEC01F01BEC19F0FDD7120045
:1004F0000080000008020808080808080808080822
:06050000080808080808C5
:10200000776ED8CF84F0F2A403D0F294762A28D049
:102010009EA813D09DA811D0E9CF80F0EACF81F01F
:102020005150506204D09D988B9AAB8815D001EE28
:102030005BF0EBCFADFF512A0FD09EAA11D09DAA25
:102040000FD0E9CF80F0EACF81F052501F0B01EEA4
:102050005BF0AECFEBFF522A80C0E9FF81C0EAFF00
:10206000775084C0D8FF1000D59CD59AD596D580DE
:10207000D592D584D58EF194D66AD76AD08EF28A5D
:10208000F28C12008B9A949A948C948E810EAF6E7F
:10209000800EAB6E240EAC6E9F989F9AD08EF28C01
:1020A0009D8A1200D9CFE6FFE1CFD9FFAB9800019E
:1020B000526B0001516BFE0EDBCF50F08B8A9D8876
:1020C000E552E7CFD9FF12000101820E5B6F0101DB
:1020D000010EAE6F030EAC6F1E0EAE5D1BE2AE5175
:1020E000EA6A5B0FE96E010EEA22EFCFADF1AD5166
:1020F00001E110D0AD51AC1B800EAD11E66EAE51BA
:10210000AE2BEA6A5B0FE96E010EEA22E552E75058
:10211000EF6EE2D7AE51AE2BEA6A5B0FE96E010EAD
:10212000EA22830EEF6E800EAC11E66EAE51AE2B3E
:10213000EA6A5B0FE96E010EEA22E552E750EF6EA4
:10214000AE29E66EAFDFE55212009DA802D0000E68
:1021500037D0820E01015B5D02E0000E31D001013B
:10216000010EAE6FAC6B1F0EAE5D19E2AE51EA6AA6
:102170005B0FE96E010EEA22EF507F0BAD6FAD51A0
:10218000AC1BAE51AE2BEA6A5B0FE96E010EEA2280
:10219000ADC1EFFF030EAD5D01E101D0E4D7AE515B
:1021A000EA6A5B0FE96E010EEA22EF507F0BAD6F1A
:1021B000AC51AD5D02E0000E03D0020EAE5D00D06A
:1021C0001200D9CFE6FFE1CFD9FFFE0EDB50390870
:1021D00005E2FE0EDB8ADB50A90F04D0FE0EDB50B9
:1021E000D00F00D0E552E7CFD9FF1200D9CFE6FFDC
:1021F000E1CFD9FF020EE126FD0EDBCFE9FFFE0E97
:10220000DBCFEAFFEF50E66EDCDFE552DF6ED9CFC1
:10221000E9FFDACFEAFF040ED890EE36ED36E80695
:10222000FBE1010EE76EFD0EDBCFE9FFFE0EDBCF1B
:10223000EAFFE750E926000EEA22EF50E66EC1DF22
:10224000E552DF12D9CFE9FFDACFEAFF040ED890CA
:10225000EE36ED36E806FBE1020EE76EFD0EDBCF53
:10226000E9FFFE0EDBCFEAFFE750E926000EEA2287
:10227000EF50E66EA6DFE552DF12DECF4CF0DDCF89
:102280004DF04CC0F3FF4DC0F4FF00D0D9CFE1FFBB
:10229000E552E7CFD9FF1200D9CFE6FFE1CFD9FF52
:1022A000FE0EDB50090804E3FE0EDB50300F03D0B6
:1022B000FE0EDB50370F00D0E552E7CFD9FF1200FA
:1022C000D9CFE6FFE1CFD9FFFB0EDB500F0BE66E57
:1022D000E3DFE552E66E020EE76EFD0EDBCFE9FFAF
:1022E000FE0EDBCFEAFFE750E926000EEA22E552B8
:1022F000E750EF6ED950FB0FE96EFF0EDA20EA6E61
:10230000040E0F0B06E0EC52D890ED32EF32E806E7
:10231000FAE1FB0EDB500F0BE66EBEDFE552E66E18
:10232000010EE76EFD0EDBCFE9FFFE0EDBCFEAFF0D
:10233000E750E926000EEA22E552E750EF6ED95049
:10234000FB0FE96EFF0EDA20EA6E040E0F0B06E0BB
:10235000EC52D890ED32EF32E806FAE1FB0EDB509A
:102360000F0BE66E99DFE552E66EFD0EDBCFE9FF5F
:10237000FE0EDBCFEAFFE552E750EF6EE552E7CF06
:10238000D9FF1200D9CFE6FFE1CFD9FF160EE66ED6
:10239000E66A320E4C6E3C0E4D6E4E6A4CC0E6FF45
:1023A0004DC0E6FF4EC0E6FF5C0EE66E010EE66E27
:1023B00025EC02F0F56E070EE15EF550FE0EDB50E7
:1023C000300F01015D6F64EC10F0E552E7CFD9FFEB
:1023D0001200D9CFE6FFE1CFD9FF160EE66EE66A0E
:1023E000480E4C6E3C0E4D6E4E6A4CC0E6FF4DC022
:1023F000E6FF4EC0E6FF5C0EE66E010EE66E25ECD3
:1024000002F0F56E070EE15EF550FE0EDB50300F68
:1024100001015D6F64EC10F0E552E7CFD9FF1200C7
:10242000D9CFE6FFE1CFD9FFA5EC10F0160812E0F6
:10243000FE0EDB500C0DF3CFE9FFF4CFEAFF290EBF
:10244000E926010EEA220A0EE926000EEA22EE6AC9
:10245000ED6A24D06F0EE66E010EE66EC7DEE55221
:10246000E552F3CF4CF0F4CF4DF0040ED8904C363B
:102470004D36E804FBE1FE0EDB500C0DF3CFE9FF17
:10248000F4CFEAFF290EE926010EEA220A0EE92618
:10249000000EEA224CC0EEFF4DC0EDFFE552E7CF43
:1024A000D9FF1200D9CFE6FFE1CFD9FFA5EC10F09C
:1024B000160812E0FE0EDB500C0DF3CFE9FFF4CF4F
:1024C000EAFF290EE926010EEA22080EE926000E8F
:1024D000EA22EE6AED6A24D06F0EE66E010EE66E19
:1024E00085DEE552E552F3CF4CF0F4CF4DF0040E0B
:1024F000D8904C364D36E804FBE1FE0EDB500C0D57
:10250000F3CFE9FFF4CFEAFF290EE926010EEA2214
:10251000080EE926000EEA224CC0EEFF4DC0EDFF8A
:10252000E552E7CFD9FF1200D9CFE6FFE1CFD9FFBF
:102530001E0EE66EE66A5E0E4C6E3C0E4D6E4E6AE8
:102540004CC0E6FF4DC0E6FF4EC0E6FF5C0EE66EF7
:10255000010EE66E25EC02F0F56E070EE15EF55019
:10256000FE0EDB50300F01015D6FFE0EDB500C0DD7
:10257000F3CFE9FFF4CFEAFF290EE926010EEA22A4
:10258000EECF4CF0EFCF4DF0040ED8904D324C32E0
:10259000E804FBE14CC0E6FF4DC0E6FF760EE66EB8
:1025A000010EE66E8DDEE552E552E552E55264EC31
:1025B00010F0E552E7CFD9FF1200D9CFE6FFE1CF07
:1025C000D9FF56EC13F0FE0EDB50E824E66E8CECDF
:1025D00013F0E55280EC13F0000904E163EC13F012
:1025E000FF0E23D0FB0EDB501CE0FC0EDBCFE9FF1F
:1025F000FD0EDBCFEAFFEF50E66E8CEC13F0E552F8
:1026000080EC13F0000905E163EC13F0FB0EDB50E6
:102610000CD0FC0EDB2AFD0E01E3DB2AFB0EDB06F1
:10262000E1D763EC13F0000E00D0E552E7CFD9FFFD
:102630001200D9CFE6FFE1CFD9FF56EC13F0FE0E22
:10264000DB50E8240109E66E8CEC13F0E55280ECD7
:1026500013F0000904E163EC13F0FF0E23D0FB0E2E
:10266000DB501EE0A4EC13F0E66EFC0EDBCFE9FFBE
:10267000FD0EDBCFEAFFE552E750EF6EFB0EDB0409
:1026800005E178EC13F063EC13F002D06DEC13F07D
:10269000FC0EDB2AFD0E01E3DB2AFB0EDB06DFD797
:1026A000000E00D0E552E7CFD9FF1200B6EC13F0D0
:1026B000EF82B6EC13F0EF84B6EC13F0EF92B6ECC9
:1026C00013F0EF941200B6EC13F0EF92B6EC13F0A7
:1026D000EF84B6EC13F0EF821200B6EC13F0EF9239
:1026E000BEEC13F0C5EC13F0B6EC13F0EF82120061
:1026F000B6EC13F0EF82BEEC13F0C5EC13F0120051
:10270000B6EC13F0EF82BEEC13F0B6EC13F0000E53
:1027100082A2AC0EEF941200FF0EE350536E080E2F
:10272000546EB6EC13F053AE02D0EF8202D0EF92AB
:1027300000D0BEEC13F0C5EC13F05346542EF1D785
:10274000B6EC13F0EF821200B6EC13F0EF82080E35
:10275000546EBEEC13F053465390B6EC13F082B2B5
:102760005380EF94542EF5D7535012000FEE94F08F
:102770008B948B920000000000001200B6EC13F066
:10278000EF8482B41200C1EF13F0B6EC13F0EF94B3
:102790001200CD8ECD9ACD98CD96CD94CD82CE6AB5
:1027A000CF6ACD8012000101966B976B9151075C47
:1027B000986F92510858996FD8909837993707C0F9
:1027C00091F108C092F1930EE96E010EEA6EEE509F
:1027D000005C9A6FEE5001589B6FEE5002589C6F50
:1027E0009D6B00C093F101C094F102C095F196C1B8
:1027F00040F097C141F098C142F099C143F09AC1AD
:1028000045F09BC146F09CC147F09DC148F048ECA3
:1028100002F040C09EF141C09FF142C0A0F143C010
:10282000A1F19EC155F19FC156F1010E0101D89051
:1028300055375637E806FBE11200010E8C6E8A6AA6
:10284000096A1E0E0A6E010E116E0B6A0C6A0D6E7D
:102850000E6A136E0101300E016F330E026F030E0C
:10286000076F0B6B0C6B116F156B166B1B6F1F6B70
:10287000206B256F01012F6B3B6B476B0101536B85
:10288000146E156A12000101296B2A6B356B366BC9
:10289000416B426B1200030EE66EE66A000E4C6E50
:1028A0007D0E4D6E4E6A4CC0E6FF4DC0E6FF4EC039
:1028B000E6FF000EE66E030EE66E25EC02F0F56E06
:1028C000070EE15EF55001C3E6FF02C3E6FF030E0B
:1028D0004C6E7D0E4D6E4E6A4CC0E6FF4DC0E6FF5D
:1028E0004EC0E6FF030EE66E030EE66E25EC02F028
:1028F000F56E070EE15EF550030E146E156A040EB8
:10290000276EEDEF17F0D9CFE6FFE1CFD9FFFE0E2E
:10291000DB5003E0040E271405E1030E146E156A64
:102920008CDFCAD1000E1424E96E030E1520EA6E66
:10293000EF5010E1010E1424E96E000E1520EA6E2E
:10294000000EE926030EEA22EFCF4CF0FE0EDB501C
:102950004C5C27E0030E146E156A03010151145CF0
:10296000025115581EE2000E1424E96E030E1520C4
:10297000EA6EEF5011E1010E1424E96E000E1520ED
:10298000EA6E000EE926030EEA22EFCF4CF0FE0EAF
:10299000DB504C5C01E105D0030E1426000E15221D
:1029A000DCD703010151145C0251155804E3030EF6
:1029B000146E156A81D10101076B116B1B6B256BBE
:1029C00001012F6B3B6B476B0101536B142A000E07
:1029D0001522000E1424E96E030E1520EA6EEF5046
:1029E000096E142A000E1522000E1424E96E030E3F
:1029F0001520EA6EEF500A6E0B6A0C6A010E0D6E1E
:102A00000E6A116E0928126E142A000E1522030197
:102A10000151145C0251155801E344D1000E1424F5
:102A2000E96E030E1520EA6EEF50166E165001E1A6
:102A300039D10F0E1614176E16380F0B166E142A96
:102A4000000E1522165029E11750030A1CE0010A56
:102A50000FE0030A01E020D0000E1424E96E030EFB
:102A60001520EA6EEECF0BF0EDCF0CF0116A14D00A
:102A7000000E1424E96E030E1520EA6EEECF0DF061
:102A8000EDCF0EF009D0000E1424E96E030E1520D0
:102A9000EA6EEF50126E00D000D11606040E165CDE
:102AA0000BE216500A0DF3CF18F0F4CF19F0010E17
:102AB0001826010E192217D0040E165E030E165C9E
:102AC0000BE216500C0DF3CF18F0F4CF19F0290ECD
:102AD0001826010E192207D0030E165C04E14D0ED4
:102AE000186E010E196E1750030A01E1ABD0010AEE
:102AF00001E193D0030A01E17BD0010A01E0CDD0CE
:102B0000000E1424E96E030E1520EA6EEECF4CF091
:102B1000EFCF4DF018C0E9FF19C0EAFF4CC0EEFF3F
:102B20004DC0EDFFF00E4C6E18C0E9FF19C0EAFF72
:102B30004C50EF1618C0E9FF19C0EAFF060EE9264F
:102B4000000EEA22030EEF6E18C0E9FF19C0EAFF7B
:102B5000EECFAFF1EDCFB0F10F0B010105E0D89052
:102B6000B033AF33E806FBE118C0E9FF19C0EAFF54
:102B70000101AF51EE5C4C6EB051EE584D6E18C075
:102B8000E9FF19C0EAFF020E4CC0EBFF030E4DC077
:102B9000EBFF18C0E9FF19C0EAFFEE50AF27EE5077
:102BA000B02318C0E9FF19C0EAFF040EE926000EA1
:102BB000EA22EECF4CF0EFCF4DF04C50AF5D4D50D0
:102BC000B0590BE218C0E9FF19C0EAFF040EE9266C
:102BD000000EEA22EE68ED680AD018C0E9FF19C0BD
:102BE000EAFF040EAFC1EBFF050EB0C1EBFF55D0FD
:102BF000000E1424E96E030E1520EA6EEECF4CF0A1
:102C0000EFCF4DF018C0E9FF19C0EAFF020E4CC02B
:102C1000EBFF030E4DC0EBFF40D0000E1424E96E15
:102C2000030E1520EA6EEECF4CF0EFCF4DF018C03A
:102C3000E9FF19C0EAFF040E4CC0EBFF050E4DC0C2
:102C4000EBFF2BD0000E1424E96E030E1520EA6E64
:102C5000EF500309E66E18C0E9FF19C0EAFF060E3F
:102C6000E926000EEA22E552E750EF6E010E142429
:102C7000E96E000E1520EA6E000EE926030EEA2228
:102C8000EF50E66E18C0E9FF19C0EAFF070EE9260B
:102C9000000EEA22E552E750EF6E020E1426000EF7
:102CA0001522B5D60151145C0251155803E3030EE9
:102CB000146E156A010E136EE552E7CFD9FF1200AC
:102CC00018C0E9FF19C0EAFF060EEB50E00B02E165
:102CD000010E30D118C0E9FF19C0EAFF060EEB5013
:102CE000200B01E1AFD0115001E0ABD018C0E9FFDB
:102CF00019C0EAFF060EEB50400B4EE018C0E9FF8A
:102D000019C0EAFFEECF4CF0EFCF4DF018C0E9FF4D
:102D100019C0EAFF040EE926000EEA22EECF4EF0BB
:102D2000EFCF4FF04E504C5C4F504D5817E318C04A
:102D3000E9FF19C0EAFF060EE926000EEA22EF6A53
:102D40000F6A106A18C0E9FF19C0EAFF070EEB50BE
:102D5000E66ED9DDE552000EEDD01DD018C0E9FFBA
:102D600019C0EAFF020EE926000EEA22EECF4CF06F
:102D7000EFCF4DF018C0E9FF19C0EAFF4C50EE2626
:102D80004D50ED2218C0E9FF19C0EAFF060EE926F2
:102D9000000EEA22EF8055D018C0E9FF19C0EAFF03
:102DA000060EEB50800B4DE018C0E9FF19C0EAFF9A
:102DB000EECF4CF0EFCF4DF018C0E9FF19C0EAFF9D
:102DC000020EE926000EEA22EECF4EF0EFCF4FF0D2
:102DD0004C504E5C4D504F5817E318C0E9FF19C0D6
:102DE000EAFF060EE926000EEA22EF6A0F6A106A71
:102DF00018C0E9FF19C0EAFF070EEB50E66E83DD4D
:102E0000E552000E97D01DD018C0E9FF19C0EAFFA7
:102E1000040EE926000EEA22EECF4CF0EFCF4DF083
:102E200018C0E9FF19C0EAFF4C50EE5E4D50ED5A54
:102E300018C0E9FF19C0EAFF060EE926000EEA22D3
:102E4000EF8076D018C0E9FF19C0EAFF060EEB50FC
:102E5000400B33E018C0E9FF19C0EAFF080EE9266D
:102E6000000EEA22EECF4CF0EFCF4DF018C0E9FF94
:102E700019C0EAFF040EE926000EEA22EECF4EF05A
:102E8000EFCF4FF04C504E5C4D504F5816E218C0EB
:102E9000E9FF19C0EAFF060EE926000EEA22EF6AF2
:102EA0000F6A106A18C0E9FF19C0EAFF070EEB505D
:102EB000E66E29DDE552000E3DD018C0E9FF19C0CD
:102EC000EAFF060EEB50800B33E018C0E9FF19C093
:102ED000EAFF080EE926000EEA22EECF4CF0EFCF13
:102EE0004DF018C0E9FF19C0EAFF020EE926000EF6
:102EF000EA22EECF4EF0EFCF4FF04E504C5C4F50E9
:102F00004D5816E218C0E9FF19C0EAFF060EE9267F
:102F1000000EEA22EF6A0F6A106A18C0E9FF19C0B2
:102F2000EAFF070EEB50E66EEEDCE552000E02D033
:102F3000010E00D01200245038E103010151225C3F
:102F40000251235824E31E1C1E6E1F1C1F6E201CE2
:102F5000206E211C216E27A20FD01A501E1809E1E5
:102F60001B501F1806E11C50201803E11D502118AA
:102F700000E101E0276A09D01EC01AF01FC01BF053
:102F800020C01CF021C01DF02782279025D022C030
:102F9000E9FF23C0EAFF222A000E2322000EE926C1
:102FA000030EEA22EF50256E02D025902542000143
:102FB0001E512518266ED890213220321F321E3223
:102FC00026A007D01E7A830E1F1AB80E201AED0E07
:102FD000211A242A070E241612001E681F68206872
:102FE0002168226A236A246A278012002F0E926EBB
:102FF000010E8C6E8A6A936A956A94681200D9CF22
:10300000E6FFE1CFD9FFE652FD0EDB50070B4C6E19
:10301000010E4C5204E0E846FE0B4C06FCE1DF6E6C
:10302000FD0EDB500E080BE1FE0EDB0408E1010192
:103030001B0ED88055550D0E565501E214D0FD0ECD
:10304000DBA609D0FE0EDB5003E0DF508A1202D06F
:10305000DF1C8A1608D0FE0EDB5003E0DF508C1216
:1030600002D0DF1C8C16E552E552E7CFD9FF1200E3
:10307000D9CFE6FFE1CFD9FF040EF36EFE0EDBCF12
:10308000F4FFF350F45C02E3FF0E39D0FE0EDB5088
:103090000A0DF3CFE9FFF4CFEAFF010EE926010E96
:1030A000EA22010EE926000EEA22EFCF59F1FE0EC8
:1030B000DB500A0DF3CFE9FFF4CFEAFF010EE9265A
:1030C000010EEA22EFCF5AF101015A390F0B5A6F64
:1030D0005939F00B5A1359390F0B596F020EE66E1E
:1030E000590EE66E010EE66EFE0EDB500C09E66E22
:1030F000DDEC12F0E552E552E552E55200D0E55222
:10310000E7CFD9FF120009C0C1F08CCFC2F08ACF3F
:10311000C3F00FC0C4F010C0C5F011C0C6F001C1AB
:10312000C7F002C1C8F0040E0F0B000105E0D890F3
:10313000C833C733E806FBE1F00E010109150001B1
:10314000C8130AC1C9F00BC1CAF00CC1CBF0040E00
:103150000F0B05E0D890CB33CA33E806FBE1F00E45
:10316000010113150001CB1314C1CCF015C1CDF032
:1031700016C1CEF0040E0F0B05E0D890CE33CD3340
:10318000E806FBE1F00E01011D150001CE131EC182
:10319000CFF01FC1D0F020C1D1F0040E0F0B05E01D
:1031A000D890D133D033E806FBE1F00E01012715AA
:1031B0000001D11328C1D2F0D36B55C1D4F056C150
:1031C000D5F029C1D6F02AC1D7F0040E0F0B05E0C7
:1031D000D890D733D633E806FBE1F00E0101311564
:1031E0000001D71332C1D8F035C1D9F036C1DAF0B9
:1031F000040E0F0B05E0D890DA33D933E806FBE173
:10320000F00E01013D150001DA133EC1DBF041C1B2
:10321000DCF042C1DDF0040E0F0B05E0D890DD3389
:10322000DC33E806FBE1F00E010149150001DD1376
:103230004AC1DEF012001F0ED014756EC00EFC14D1
:103240007512D4DE34EC10F0766A2D0E2A6E310E33
:103250002B6E010E2C6E036A046A056A066A376AD1
:10326000316A7BC133F07CC134F0010E326E746A76
:10327000716A736A010E706E0001C0699486948849
:10328000C76A3E0EC66EC56A9F869D86D08EF28E38
:10329000B00EC86E42EC10F0C9EC13F00F6A106A61
:1032A0001DEC14F043EC14F04BEC14F00400B00EE1
:1032B000C86E76C002F0D6CF00F0D7CF01F07650BE
:1032C0000001025D06E076C002F0D6CF00F0D7CF55
:1032D00001F0CECF07F0CFCF08F02A50005C4C6E43
:1032E0002B5001584D6E2C5002584E6E000E4E1849
:1032F000E8AE02D04E3407D0000ED8804C54000EF9
:103300004D54000E4E5415E22D0E2A26310E2B225E
:10331000010E2C22032A000E042205220622095047
:1033200005E0115003E10F2A000E10220101010EE9
:10333000006FF80E000100152D6E2E502D5C5DE023
:10334000000136AF0CD03206325009E18AAE04D00B
:103350008A9E7FC132F003D08A8E80C132F0390656
:1033600038503CE0C2B439D0040E375C25E2375007
:103370000A0DF3CFE9FFF4CFEAFF010EE926010EB3
:10338000EA22080EE926000EEA22C3CFEFFF3750EB
:103390000A0DF3CFE9FFF4CFEAFF010EE926010E93
:1033A000EA22080EE926000EEA22010EE926000EA6
:1033B000EA22C4CFEFFF04D0C3CF57F1C4CF58F1F6
:1033C000386A372A050E375C01E3376A090EC16E89
:1033D0003750080DF3508109C26E0CD0395006E108
:1033E000100E396E010E386EC28404D027A002D0B0
:1033F0009BEC17F02D502E6E04D0E00E000101154D
:103400002F6E715001E110D2FF0E715C01E10CD200
:103410004F0EC86E010E706E690E735C04E0000101
:10342000FC0EC06FFBD1E0C028F028BE75D128503B
:10343000430A01E15DD1010A01E137D10C0A01E142
:1034400027D10F0A01E110D1010A01E1F5D0410AAB
:1034500001E1E3D0050A01E1C6D0740A01E1BBD065
:10346000770A01E18CD0010A5FE0050A17E0010A42
:1034700001E04ED1020E715C0DE103C0C1F004C049
:10348000C2F005C0C3F006C0C4F028C0C0F0050EED
:10349000706E03D00001FE0EC06F3DD10001E151FE
:1034A0006F0A1DE0060A01E03AD0E4C070F07050E7
:1034B0001E0811E37050E66EE66AE2C0E6FFE3C064
:1034C000E6FFC10EE66E000EE66EFAEC01F0F56E58
:1034D000060EE15EF55028C0C0F0702A24D011AA73
:1034E0001AD0050E715E71501B0811E37150E66E23
:1034F000E66AE40EE66E000EE66EE2C0E6FFE3C0AA
:10350000E6FFFAEC01F0F56E060EE15EF550276A73
:1035100028C0C0F003D00001F10EC06F04D000013C
:10352000F10EC06F00D0F7D011AA25D0020E715E47
:10353000715000081DE271501D081AE37150E66ECB
:10354000E66AE10EE66E000EE66E5C0EE66E010EB9
:10355000E66EFAEC01F0F56E060EE15EF5507128AC
:10356000EA6A5B0FE96E010EEA22EF6A64EC10F082
:1035700028C0C0F003D00001F10EC06FCCD011AA5A
:1035800026D0020E715C22E1A5EC10F00001C16FA3
:103590000001C151000816E20001C1511D0812E3EB
:1035A0000001C151E66EE66A5C0EE66E010EE66E43
:1035B000C20EE66E000EE66EFAEC01F0F56E060E37
:1035C000E15EF55028C0C0F01F0E706E03D0000100
:1035D000F10EC06FA0D0040E715C04E1F29C0400F7
:1035E00008EF00F098D0020E715C13E10001080EA4
:1035F000C16F0001010EC26F00014F0EC36F75C095
:10360000C4F00001670EC56F28C0C0F0060E706ED2
:1036100003D00001FE0EC06F7ED0020E715C08E187
:10362000010E8C6E8A6A28C0C0F0010E706E03D045
:103630000001FE0EC06F6FD0030E715C11E111BA74
:1036400008D0116A0F6A106AE1C0E6FF83EC14F03B
:10365000E55209C0C1F028C0C0F0020E706E03D060
:103660000001FE0EC06F57D0030E715C0DE1200EFD
:103670000001E11502E0095002E1E1C011F028C0AB
:10368000C0F0010E706E03D00001FE0EC06F43D07B
:10369000020E715C06E137DD28C0C0F01F0E706EAF
:1036A00003D00001FE0EC06F36D0030E715C1CE12A
:1036B00027A205D00001E15101E0278402D0EDEC02
:1036C00017F027C0C1F01AC0C2F01BC0C3F01CC065
:1036D000C4F01DC0C5F001C3C6F002C3C7F028C0C6
:1036E000C0F0080E706E03D00001FE0EC06F13D044
:1036F000040E715C09E1E1C00FF0E2C010F028C0D7
:10370000C0F0010E706E03D00001FE0EC06F03D03A
:103710000001F00EC06F82D00F0E2814296EF00E3B
:1037200028162850C00A53E0400A23E0200A03E08C
:10373000100A01E070D0020E715C17E111A211D0E5
:103740002950E66EA00E285C02E0000E01D0010EAA
:10375000E66E55DCE552E552285029100001C06F95
:1037600003D00001F10EC06F03D00001FE0EC06F48
:1037700055D0040E715C27E1020E111420E0040EF6
:10378000295C1DE229500A0DF3CFE9FFF4CFEAFFCF
:10379000010EE926010EEA22E1C0EEFFE2C0EDFFD4
:1037A0002950E66E65DCE552000904E00001FD0EDB
:1037B000C06F04D0285029100001C06F03D0000151
:1037C000F10EC06F03D00001FE0EC06F27D0040EB3
:1037D000715C1DE1020E111416E0030E295C13E268
:1037E00029500C0DF3CFE9FFF4CFEAFF290EE926AB
:1037F000010EEA22E1C0EEFFE2C0EDFF28502910E1
:103800000001C06F03D00001F10EC06F03D00001B2
:10381000FE0EC06F03D00001F00EC06F970E726EE7
:10382000716A736AB00EC86E30502F5C01E141D1ED
:10383000312A0F0E311675B604D001017B6BBA0E1A
:103840007C6F315009E17BC133F07CC134F07DC124
:1038500035F07EC136F00CD0010ED89033363436B8
:10386000E806FBE1010ED89035363636E806FBE176
:10387000000134AF02D0899801D08988000136AFA9
:1038800009D03150EA6A810FE96E010EEA22EFCFCA
:103890007FF101D08A9E11BAF4D031500F0A01E1B4
:1038A000BBD0010A01E183D0050A4EE0010A46E0DF
:1038B000030A39E00E0A2DE0010A21E0050A14E0AE
:1038C000010A08E0030A01E0DCD0E66AC2EC11F06C
:1038D000E552D7D0E66A10EC12F0E552010EE66E22
:1038E000C2EC11F0E552CDD0010EE66E10EC12F0F4
:1038F000E552020EE66EC2EC11F0E552C2D0020EA5
:10390000E66E10EC12F0E552E66AE9EC11F0E552D1
:10391000B8D0E66A52EC12F0E552010EE66EE9EC20
:1039200011F0E552AED0010EE66E52EC12F0E55207
:10393000020EE66EE9EC11F0E552A3D0020EE66E3F
:1039400052EC12F0E5529DD001012FAB18D00101CD
:1039500029510101335D3A6E345101012A553B6E04
:10396000A00E3A26000E3B22400ED8803A54010E9B
:103970003B5404E2E66A94EC12F0E55217D00101E0
:1039800029510101331904E101012A5101013419BE
:103990000DE0010129512A1105E0E66A94EC12F0CC
:1039A000E55204D033C129F134C12AF16AD00101B2
:1039B0003BAB19D00101355101013F5D3A6E4051D9
:1039C000010136553B6EA00E3A26000E3B22400EFA
:1039D000D8803A54010E3B5405E2010EE66E94EC99
:1039E00012F0E55218D00101355101013F1904E1EF
:1039F00001013651010140190EE001013551361126
:103A000006E0010EE66E94EC12F0E55204D03FC1E0
:103A100035F140C136F135D0010147AB19D0010174
:103A2000415101014B5D3A6E4C51010142553B6ED3
:103A3000A00E3A26000E3B22400ED8803A54010ECA
:103A40003B5405E2020EE66E94EC12F0E55218D0FB
:103A50000101415101014B1904E1010142510101F0
:103A60004C190EE001014151421106E0020EE66ED2
:103A700094EC12F0E55204D04BC141F14CC142F13B
:103A800000D0050E315C03E00D0E315C10E1D3EC8B
:103A900013F001011B0ED88055550D0E565507E247
:103AA0000E0EE66EE66AFFEC17F0E552E5522F5077
:103AB000306E0101005101E1B9D0030E311401E073
:103AC000B5D00101006B095010E011500EE10F500C
:103AD0000B5C10500C5809E20B500F5E0C50105A42
:103AE0001250E66E83EC14F0E5520A504C6E4D6AAB
:103AF0004C500F5C4D5010583EE3010E186E010EF5
:103B0000196E60EC16F0000936E00B0E186E010E0F
:103B1000196E60EC16F000092EE0150E186E010EFD
:103B2000196E60EC16F0000926E01F0E186E010EEB
:103B3000196E60EC16F000091EE0290E186E010ED9
:103B4000196E60EC16F0000916E0350E186E010EC5
:103B5000196E60EC16F000090EE0410E186E010EB1
:103B6000196E60EC16F0000906E04D0E186E010E9D
:103B7000196E60EC16F0030E0101071506E0E66A07
:103B800038EC18F0E55201010707030E0101111589
:103B900007E0010EE66E38EC18F0E552010111075E
:103BA000030E01011B1507E0020EE66E38EC18F05B
:103BB000E55201011B07030E0101251507E0030E65
:103BC000E66E38EC18F0E55201012507135003E1C9
:103BD000020E11142BE10DC08CFF0EC08AFF09509C
:103BE00008E0060EE66E010EE66EFFEC17F0E552F9
:103BF000E552115008E0070EE66E010EE66EFFEC8E
:103C000017F0E552E5528AAE0DD08AA006D0010128
:103C1000010E7D6F050E7E6F04D00101FE0E7D6FDB
:103C20007E6903D001017D6B7E6B136A56EF19F03C
:023C3000120080
:0E3C32003031303030303130314331303030CD
:103C4000333030303030310030313030303031309E
:103C5000314330303030303030303030310030317E
:103C6000303030303130324331303030333030303A
:0C3C70003030313030303030787878005F
:0A7D00000006000000000801674FB4
:020000040030CA
:08000000FFFAFEFFFFFFFBFF0A
:00000001FF
