:020000040000fa
:0800000046110400000000009d
:020000040000fa
:10202000809fbe003400f80000c0b300a00188000b
:102030000000fa0087e0a9001141800020418000e3
:10204000808f50000e00320033c2bf00624060003b
:102050000004e0000a003a0020418000ff00600018
:102060002080200000804000104078000080fb00ad
:10207000a0118800204180000000e8002041880075
:102080000080fa003400f9004f00be000040060056
:020000040000fa
:10222000809fbe00821f78003400f80000c0b30019
:10223000a00188000000fa0087c0a9000a0037004a
:10224000304280007f016000b01180008040780043
:102250006082200000004100014878003042800088
:102260000000e8003042880032c2bf0061406000d8
:102270000004e000f2ff3a000080fa003400f900a8
:0c2280004f0178004f00be000040060037
:020000040000fa
:10228c00cf882000807f2200000188000000000021
:10229c00050007000c000700781202000000000087
:1022ac000040da000000fe004440a90000002000bd
:1022bc000000e0000300320000002000a0018800b4
:1022cc004440a80000000600007721000100200017
:1022dc001600370062004000e08048009101880041
:1022ec009001ba0062004000e08048009101880033
:1022fc009002ba0062004000e08048000002eb004f
:10230c006028e10005003a008301e9000700330072
:10231c00038009000059eb00040037006128e1003c
:10232c00010032000082eb000500070091018800db
:10233c001001ba000200e000e6ff3a0000000500c0
:10234c00910188008002780062004000e080480023
:10235c003559ba008301e900080032002559ba004a
:10236c008301e900050032000400e000f4ff3200b4
:10237c0015d9ba008301e900f1ff3a00000006000c
:10238c006022b800060220000000d0008180d2003c
:10239c000482d2008582d2000000a000020252000a
:1023ac0083825a00030031000202420083824a00f9
:1023bc000000a1000603e900f3ff3a00000006004c
:1023cc000400fa00004f78001e80fb0010079800f4
:1023dc001e0090000000e0000d0032001e00900076
:1023ec00e10f5000010032000d00370078c8bf002b
:1023fc000004e0000b003a0000448000f043880029
:10240c0010c0b30078e8b700c422a800050037005c
:10241c000040eb0078e8b700c422a90001003700a7
:10242c00c422a9000080fa00000006000000fa0097
:10243c00c2c2bf00704060000004e0000400320023
:10244c00104480000000a2002044880002003700e5
:10245c00104480002044880078c8bf000080fb0036
:10246c00e10f5000010032001b003700f0438000e8
:10247c000000e900f0438800f04380000000e00019
:10248c0004003c000040eb0078e8b700c422a9002f
:10249c001200370081428000e0438000808f5000a2
:1024ac0007003e0081428000d0438000808f5000a6
:1024bc0003003900204480000000e00007003a00cf
:1024cc00c422a9000040eb0078e8b7000000eb0044
:1024dc00f043880001003700c422a9000080fa00f4
:1024ec00000006000800fa00881f780083e0a800ae
:1024fc0081e0a800005822007e0107008000eb005c
:10250c000000eb0038010700c402a900c422a90096
:10251c00c002a900c022a90004020700a0252600c1
:10252c002100200080438800914388006000b8009f
:10253c00a0438800b14388002c0207000040eb0048
:10254c0078e8b7000000eb00f04388005000200052
:10255c00d043880000a82000e043880000652400d8
:10256c0000448800c082a8000000eb0010448800e2
:10257c000000eb00000f780000003700a184200061
:10258c00a008800080087800a08420008080e800eb
:10259c00b008800080087800300880007042880005
:1025ac00524280006342800080438000914380004f
:1025bc000000510081805900e00f5000e08f58005e
:1025cc00100034008243800093438000a025260035
:1025dc0021002000020040008380480080438800d6
:1025ec0091438800a0438000b1438000610040000b
:1025fc00e0804800a0438800b14388000602070031
:10260c008aff0700420107000000e000dbff3200f8
:10261c00900120009e0f100007003c001e04780063
:10262c0058010700804078002085200000004400fd
:10263c00014878001e0fe800110020009e8f10004a
:10264c0067003a0052c8bf000080fb0030079800ba
:10265c003e009000f70f500038003200be00900092
:10266c00f78f500007003c003e009000e20f500036
:10267c001e003200be009000e48f50000e003200ad
:10268c0052003700700e2000be009000808f50006a
:10269c0030003200000f2000be009000808f5000f0
:1026ac0045003200000e2000be009000808f5000cc
:1026bc00250032004500370080c0b3004a010700f6
:1026cc0020c0b3004801070090c6b30046010700c4
:1026dc0070c5b3004401070052c8bf004201070097
:1026ec000000eb00000f7800a4ff370040872000ab
:1026fc00104078003c010700408720000000e800f3
:10270c001040780038010700408720000080e80066
:10271c00104078003401070040872000630040001f
:10272c00104078003001070052c8bf002e0107008e
:10273c000000eb00000f780090ff37002000200015
:10274c00604388008dff3700400020006043880004
:10275c008aff370078c8bf002301070000852000de
:10276c001040780020010700008520000000e800e0
:10277c00104078001c010700e08720001040780012
:10278c0019010700e08720000000e80010407800e5
:10279c001501070020448000130107000040eb00e6
:1027ac001101070052c8bf000f0107000000eb0029
:1027bc00000f780071ff370052c8bf000a010700f4
:1027cc000000eb00000f78006cff370000c0eb003e
:1027dc00050107000000eb00000f780067ff3700d1
:1027ec009e00780060438000808f500063ff3900aa
:1027fc0052c8bf000080fb00200798002e009000fc
:10280c00f70f500005003200000e2000ae009000c3
:10281c00808f50000b0032005700370053c8bf00a8
:10282c00f84f400002003a000000fe0002003700a2
:10283c00e0cfb300ec0007000000eb00000f7800c5
:10284c004eff3700e186200054c8bf008048780056
:10285c00e08620008000e80055c8bf008048780062
:10286c0053c8bf000080fb00100798001e009000aa
:10287c00e20f5000300032009e009000e28f5000ba
:10288c0007003c001e0090000000e0000e0032002b
:10289c009e009000e18f50000e0032003100370096
:1028ac001e009000e40f5000290032009e009000a2
:1028bc00e48f5000230035001e009000e50f5000ff
:1028cc00260032002700370070438000bcfe070052
:1028dc00240037007043800061406000614060005c
:1028ec006140600061416000412c20009140780003
:1028fc00e0cfb30000c0600002407000c4e2b7003b
:10290c00704380000000d1006140600061406000b5
:10291c00614060006140600000414000412c20009b
:10292c0091407800d0cfb30000c06000024070002e
:10293c00c4e2b7000b00370070438000d04388001e
:10294c000800370070438000e04388000500370022
:10295c007043800000448800020037007043800000
:10296c001044880052c8bf009f0007000000eb0015
:10297c00000f780001ff370000c0eb009a00070041
:10298c000000eb00000f7800fcfe37000600fa0098
:10299c00200798000068290081092000008fbe00e4
:1029ac002e0090006101b8001e00be0074fe0700ee
:1029bc00008fbe0080ff2f00f1ff2f001e0f400084
:1029cc005e9748001e00be004c09dd004400de008e
:1029dc0000007100c408de00008fbe001e007800ed
:1029ec000080fa00000006000400fa00000f7800d6
:1029fc0011079800216c20009140780000ceb300a4
:102a0c0000c060005040b300c2e6b700616a20000d
:102a1c009140780000ceb30000c060000024a000fc
:102a2c00a6e6b7000000eb00801188001e007800bd
:102a3c0061406000614160000123200091407800fa
:102a4c00e0cfb30000c060000240700030e2b7007d
:102a5c001e00900063406000634060000041400035
:102a6c00012320009140780090cfb30000c060009b
:102a7c000240700030e2b70031e2a8000000eb0029
:102a8c00901188003342a8000000eb001041880030
:102a9c000000eb00204188000000eb003042880071
:102aac000000eb004042880087c0a90087e0a90025
:102abc00310b20009140780080cfb30000c0600043
:102acc000024a000b3e0b700310b20009140780047
:102adc00f0c8b30000c0600001c2b3000140700038
:102aec00b3e0b70097c0a80097e0a8000080fa00f8
:102afc00000006000200fa00000f78001e007800ab
:102b0c00a2ff0700c01188000080fa000000060038
:102b1c000200fa0031428000404280000001eb00cc
:102b2c00020f7800808f500002003200100020004d
:102b3c00000f78001e0078000080fa0000000600ec
:102b4c000400fa00000f780006003700f0ff0700c1
:102b5c000000e00003003200100020001007980075
:102b6c00050037001e0fe9001e00e000f7ff3a00d9
:102b7c000000eb00100798001e0090000080fa0087
:102b8c00000006000400fa00314280004042800040
:102b9c00808f500003003a000080eb001007980073
:102bac000e003700404280007f0060004102200090
:102bbc008080400020802000008040001040780081
:102bcc000080fb00000f7800404280000000e8000d
:102bdc00404288001e007800100798001e009000ec
:102bec000080fa00000006000200fa00004f780096
:102bfc0010418000ff0060001e4178002080200002
:102c0c000080400002487800104180000000e8007d
:102c1c001041880097e0a9001141800020418000fc
:102c2c00808f50000e00320033c2bf006240600043
:102c3c000004e0000a003a0020418000ff00600020
:102c4c002080200000804000104078000080fb00b5
:102c5c00a0118800204180000000e800204188007d
:102c6c0097e0a8000080fa00000006000000fa00bf
:102c7c002141800010418000008050000000e900dc
:102c8c007f00600000408800004080000080fa0057
:102c9c00000006000600fa0010079800020037003a
:102cac001e407800d0ff07001e009000104f7800e7
:102cbc001e407800404798004e4090000004e00011
:102ccc000200320010c0b300404798004e40900004
:102cdc009e0090008100e800110798000004e000bd
:102cec00efff3a000080fa00000006000400fa0032
:102cfc00000f780011079800040037001e007800c0
:102d0c00104078001e0fe800b7ff07001e0090006f
:102d1c000000e900100798001e009000e10f400031
:102d2c00f6ff3a000080fa00000006000000fa00ee
:102d3c000000eb00f00888000000eb0000098800a0
:102d4c009780a9001e61a800e11120009140780035
:102d5c00f0ccb30000c0600001c2b30001407000b1
:102d6c001ee1b7000080eb00d00888000080eb006b
:102d7c00e00888000000eb00b00888000000eb00c1
:102d8c00a00888001fe1a8000080fa0000000600df
:102d9c000000fa000000eb008008880094e0a90015
:102dac000080eb00600888000000eb003008880011
:102dbc001021a80011e1a8000080fa000000060014
:102dcc000000fa00616820009140780000ceb3004a
:102ddc0000c06000c040b30086e6b7002d83a80099
:102dec00ebff07000080fa00000006000000fa006c
:102dfc00616820009140780000ceb30000c06000f4
:102e0c00d040b30086e6b7002d63a800e0ff0700b2
:102e1c000080fa00000006000e00fa0071428000eb
:102e2c0050448000008050002007980070428000c1
:102e3c0050448800ae009000f0ff2300808f5000bb
:102e4c0002003600f0ff230020079800e600470040
:102e5c000000eb0080087800660047008080e800e6
:102e6c002e0090004200dd00800878005042800067
:102e7c00614280000001be0030448000414480006b
:102e8c00001f5100019759005042800061428000a0
:102e9c0030448800414488003e009000ce009000f1
:102eac001e01be0036fd0700500798006107980010
:102ebc006a00470010007800804288008042800041
:102ecc0000004000804288000080fa0000000600ec
:102edc000000fe004a0800003c000000000000005a
:102eec00000800004a0000000000000086080000f6
:0c2efc00060000000000000000000000c4
:020000040000fa
:020000040001f9
:0457f800be7a000075
:020000040000fa
:020000040001f9
:0457fc007f3f0000eb
:020000040000fa
:100008006e1700006e1700006e1700006e170000d4
:100018006e1700006e1700006e1700006e170000c4
:100028006e1700006e1700006e1700006e170000b4
:100038006e1700006e1700006e1700006e170000a4
:020000040000fa
:100298006e1700006e17000010110000101000000b
:1002a8006e1700006e1700006e1700006e17000032
:1002b8006e1700006e1700006e1700006e17000022
:1002c8006e1700006e1700006e1700006e17000012
:1002d8006e1700006e1700006e1700006e17000002
:1002e8006e1700006e1700006e1700006e170000f2
:1002f8006e1700006e1700006e1700006e170000e2
:100308006e1700006e1700006e1700006e170000d1
:100318006e1700006e1700006e1700006e170000c1
:100328006e1700006e1700006e1700006e170000b1
:100338006e1700006e1700006e1700006e170000a1
:100348006e1700006e1700006e1700006e17000091
:100358006e1700006e1700006e1700006e17000081
:100368006e1700006e1700006e1700006e17000071
:100378006e1700006e1700006e1700006e17000061
:100388006e1700006e1700006e1700006e17000051
:100398006e1700006e1700006e1700006e17000041
:1003a8006e1700006e1700006e1700006e17000031
:1003b8006e1700006e1700006e1700006e17000021
:1003c8006e1700006e1700006e1700006e17000011
:1003d8006e1700006e1700006e1700006e17000001
:1003e8006e1700006e1700006e1700006e170000f1
:0803f8006e1700006e170000f3
:00000001FF
